{
	"contracts/Arrays.sol": {
		"ArraysExercise": {
			"abi": [
				{
					"inputs": [],
					"name": "afterY2K",
					"outputs": [
						{
							"internalType": "uint256[]",
							"name": "",
							"type": "uint256[]"
						},
						{
							"internalType": "address[]",
							"name": "",
							"type": "address[]"
						}
					],
					"stateMutability": "view",
					"type": "function"
				},
				{
					"inputs": [
						{
							"internalType": "uint256[]",
							"name": "_toAppend",
							"type": "uint256[]"
						}
					],
					"name": "appendToNumbers",
					"outputs": [],
					"stateMutability": "nonpayable",
					"type": "function"
				},
				{
					"inputs": [],
					"name": "getNumbers",
					"outputs": [
						{
							"internalType": "uint256[]",
							"name": "",
							"type": "uint256[]"
						}
					],
					"stateMutability": "view",
					"type": "function"
				},
				{
					"inputs": [
						{
							"internalType": "uint256",
							"name": "",
							"type": "uint256"
						}
					],
					"name": "numbers",
					"outputs": [
						{
							"internalType": "uint256",
							"name": "",
							"type": "uint256"
						}
					],
					"stateMutability": "view",
					"type": "function"
				},
				{
					"inputs": [],
					"name": "resetNumbers",
					"outputs": [],
					"stateMutability": "nonpayable",
					"type": "function"
				},
				{
					"inputs": [],
					"name": "resetSenders",
					"outputs": [],
					"stateMutability": "nonpayable",
					"type": "function"
				},
				{
					"inputs": [],
					"name": "resetTimestamps",
					"outputs": [],
					"stateMutability": "nonpayable",
					"type": "function"
				},
				{
					"inputs": [
						{
							"internalType": "uint256",
							"name": "_unixTimestamp",
							"type": "uint256"
						}
					],
					"name": "saveTimestamp",
					"outputs": [],
					"stateMutability": "nonpayable",
					"type": "function"
				},
				{
					"inputs": [
						{
							"internalType": "uint256",
							"name": "",
							"type": "uint256"
						}
					],
					"name": "senders",
					"outputs": [
						{
							"internalType": "address",
							"name": "",
							"type": "address"
						}
					],
					"stateMutability": "view",
					"type": "function"
				},
				{
					"inputs": [
						{
							"internalType": "uint256",
							"name": "",
							"type": "uint256"
						}
					],
					"name": "timestamps",
					"outputs": [
						{
							"internalType": "uint256",
							"name": "",
							"type": "uint256"
						}
					],
					"stateMutability": "view",
					"type": "function"
				}
			],
			"devdoc": {
				"kind": "dev",
				"methods": {},
				"version": 1
			},
			"evm": {
				"assembly": "    /* \"contracts/Arrays.sol\":65:1842  contract ArraysExercise {... */\n  mstore(0x40, 0x80)\n    /* \"contracts/Arrays.sol\":95:141  uint[] public numbers = [1,2,3,4,5,6,7,8,9,10] */\n  mload(0x40)\n  dup1\n  0x0140\n  add\n  0x40\n  mstore\n  dup1\n    /* \"contracts/Arrays.sol\":120:121  1 */\n  0x01\n    /* \"contracts/Arrays.sol\":95:141  uint[] public numbers = [1,2,3,4,5,6,7,8,9,10] */\n  0xff\n  and\n  dup2\n  mstore\n  0x20\n  add\n    /* \"contracts/Arrays.sol\":122:123  2 */\n  0x02\n    /* \"contracts/Arrays.sol\":95:141  uint[] public numbers = [1,2,3,4,5,6,7,8,9,10] */\n  0xff\n  and\n  dup2\n  mstore\n  0x20\n  add\n    /* \"contracts/Arrays.sol\":124:125  3 */\n  0x03\n    /* \"contracts/Arrays.sol\":95:141  uint[] public numbers = [1,2,3,4,5,6,7,8,9,10] */\n  0xff\n  and\n  dup2\n  mstore\n  0x20\n  add\n    /* \"contracts/Arrays.sol\":126:127  4 */\n  0x04\n    /* \"contracts/Arrays.sol\":95:141  uint[] public numbers = [1,2,3,4,5,6,7,8,9,10] */\n  0xff\n  and\n  dup2\n  mstore\n  0x20\n  add\n    /* \"contracts/Arrays.sol\":128:129  5 */\n  0x05\n    /* \"contracts/Arrays.sol\":95:141  uint[] public numbers = [1,2,3,4,5,6,7,8,9,10] */\n  0xff\n  and\n  dup2\n  mstore\n  0x20\n  add\n    /* \"contracts/Arrays.sol\":130:131  6 */\n  0x06\n    /* \"contracts/Arrays.sol\":95:141  uint[] public numbers = [1,2,3,4,5,6,7,8,9,10] */\n  0xff\n  and\n  dup2\n  mstore\n  0x20\n  add\n    /* \"contracts/Arrays.sol\":132:133  7 */\n  0x07\n    /* \"contracts/Arrays.sol\":95:141  uint[] public numbers = [1,2,3,4,5,6,7,8,9,10] */\n  0xff\n  and\n  dup2\n  mstore\n  0x20\n  add\n    /* \"contracts/Arrays.sol\":134:135  8 */\n  0x08\n    /* \"contracts/Arrays.sol\":95:141  uint[] public numbers = [1,2,3,4,5,6,7,8,9,10] */\n  0xff\n  and\n  dup2\n  mstore\n  0x20\n  add\n    /* \"contracts/Arrays.sol\":136:137  9 */\n  0x09\n    /* \"contracts/Arrays.sol\":95:141  uint[] public numbers = [1,2,3,4,5,6,7,8,9,10] */\n  0xff\n  and\n  dup2\n  mstore\n  0x20\n  add\n    /* \"contracts/Arrays.sol\":138:140  10 */\n  0x0a\n    /* \"contracts/Arrays.sol\":95:141  uint[] public numbers = [1,2,3,4,5,6,7,8,9,10] */\n  0xff\n  and\n  dup2\n  mstore\n  pop\n  0x00\n  swap1\n  0x0a\n  tag_1\n  swap3\n  swap2\n  swap1\n  tag_2\n  jump\t// in\ntag_1:\n  pop\n    /* \"contracts/Arrays.sol\":65:1842  contract ArraysExercise {... */\n  callvalue\n  dup1\n  iszero\n  tag_3\n  jumpi\n  0x00\n  dup1\n  revert\ntag_3:\n  pop\n  jump(tag_4)\ntag_2:\n  dup3\n  dup1\n  sload\n  dup3\n  dup3\n  sstore\n  swap1\n  0x00\n  mstore\n  keccak256(0x00, 0x20)\n  swap1\n  dup2\n  add\n  swap3\n  dup3\n  iszero\n  tag_5\n  jumpi\n  swap2\n  0x20\n  mul\n  dup3\n  add\ntag_6:\n  dup3\n  dup2\n  gt\n  iszero\n  tag_7\n  jumpi\n  dup3\n  mload\n  dup3\n  swap1\n  0xff\n  and\n  swap1\n  sstore\n  swap2\n  0x20\n  add\n  swap2\n  swap1\n  0x01\n  add\n  swap1\n  jump(tag_6)\ntag_7:\ntag_5:\n  pop\n  swap1\n  pop\n  tag_8\n  swap2\n  swap1\n  tag_9\n  jump\t// in\ntag_8:\n  pop\n  swap1\n  jump\t// out\ntag_9:\ntag_10:\n  dup1\n  dup3\n  gt\n  iszero\n  tag_11\n  jumpi\n  0x00\n  dup2\n  0x00\n  swap1\n  sstore\n  pop\n  0x01\n  add\n  jump(tag_10)\ntag_11:\n  pop\n  swap1\n  jump\t// out\ntag_4:\n  dataSize(sub_0)\n  dup1\n  dataOffset(sub_0)\n  0x00\n  codecopy\n  0x00\n  return\nstop\n\nsub_0: assembly {\n        /* \"contracts/Arrays.sol\":65:1842  contract ArraysExercise {... */\n      mstore(0x40, 0x80)\n      callvalue\n      dup1\n      iszero\n      tag_1\n      jumpi\n      0x00\n      dup1\n      revert\n    tag_1:\n      pop\n      jumpi(tag_2, lt(calldatasize, 0x04))\n      shr(0xe0, calldataload(0x00))\n      dup1\n      0x9977c78a\n      gt\n      tag_13\n      jumpi\n      dup1\n      0x9977c78a\n      eq\n      tag_8\n      jumpi\n      dup1\n      0xa00b7acd\n      eq\n      tag_9\n      jumpi\n      dup1\n      0xade82bfd\n      eq\n      tag_10\n      jumpi\n      dup1\n      0xb1cebac5\n      eq\n      tag_11\n      jumpi\n      dup1\n      0xd39fa233\n      eq\n      tag_12\n      jumpi\n      jump(tag_2)\n    tag_13:\n      dup1\n      0x20aaf79a\n      eq\n      tag_3\n      jumpi\n      dup1\n      0x4f9377db\n      eq\n      tag_4\n      jumpi\n      dup1\n      0x7f66b1b8\n      eq\n      tag_5\n      jumpi\n      dup1\n      0x89f915f6\n      eq\n      tag_6\n      jumpi\n      dup1\n      0x8bc33af3\n      eq\n      tag_7\n      jumpi\n    tag_2:\n      0x00\n      dup1\n      revert\n        /* \"contracts/Arrays.sol\":971:1694  function afterY2K () external view returns (uint[] memory, address[] memory) {... */\n    tag_3:\n      tag_14\n      tag_15\n      jump\t// in\n    tag_14:\n      mload(0x40)\n      tag_16\n      swap3\n      swap2\n      swap1\n      tag_17\n      jump\t// in\n    tag_16:\n      mload(0x40)\n      dup1\n      swap2\n      sub\n      swap1\n      return\n        /* \"contracts/Arrays.sol\":395:822  function appendToNumbers (uint[] calldata _toAppend) external {... */\n    tag_4:\n      tag_18\n      0x04\n      dup1\n      calldatasize\n      sub\n      dup2\n      add\n      swap1\n      tag_19\n      swap2\n      swap1\n      tag_20\n      jump\t// in\n    tag_19:\n      tag_21\n      jump\t// in\n    tag_18:\n      stop\n        /* \"contracts/Arrays.sol\":1700:1764  function resetSenders() external {... */\n    tag_5:\n      tag_22\n      tag_23\n      jump\t// in\n    tag_22:\n      stop\n        /* \"contracts/Arrays.sol\":208:300  function getNumbers () external view returns (uint[] memory) {... */\n    tag_6:\n      tag_24\n      tag_25\n      jump\t// in\n    tag_24:\n      mload(0x40)\n      tag_26\n      swap2\n      swap1\n      tag_27\n      jump\t// in\n    tag_26:\n      mload(0x40)\n      dup1\n      swap2\n      sub\n      swap1\n      return\n        /* \"contracts/Arrays.sol\":177:201  uint[] public timestamps */\n    tag_7:\n      tag_28\n      0x04\n      dup1\n      calldatasize\n      sub\n      dup2\n      add\n      swap1\n      tag_29\n      swap2\n      swap1\n      tag_30\n      jump\t// in\n    tag_29:\n      tag_31\n      jump\t// in\n    tag_28:\n      mload(0x40)\n      tag_32\n      swap2\n      swap1\n      tag_33\n      jump\t// in\n    tag_32:\n      mload(0x40)\n      dup1\n      swap2\n      sub\n      swap1\n      return\n        /* \"contracts/Arrays.sol\":147:171  address[] public senders */\n    tag_8:\n      tag_34\n      0x04\n      dup1\n      calldatasize\n      sub\n      dup2\n      add\n      swap1\n      tag_35\n      swap2\n      swap1\n      tag_30\n      jump\t// in\n    tag_35:\n      tag_36\n      jump\t// in\n    tag_34:\n      mload(0x40)\n      tag_37\n      swap2\n      swap1\n      tag_38\n      jump\t// in\n    tag_37:\n      mload(0x40)\n      dup1\n      swap2\n      sub\n      swap1\n      return\n        /* \"contracts/Arrays.sol\":829:965  function saveTimestamp (uint _unixTimestamp) external {... */\n    tag_9:\n      tag_39\n      0x04\n      dup1\n      calldatasize\n      sub\n      dup2\n      add\n      swap1\n      tag_40\n      swap2\n      swap1\n      tag_30\n      jump\t// in\n    tag_40:\n      tag_41\n      jump\t// in\n    tag_39:\n      stop\n        /* \"contracts/Arrays.sol\":1770:1840  function resetTimestamps() external {... */\n    tag_10:\n      tag_42\n      tag_43\n      jump\t// in\n    tag_42:\n      stop\n        /* \"contracts/Arrays.sol\":306:389  function resetNumbers () external {... */\n    tag_11:\n      tag_44\n      tag_45\n      jump\t// in\n    tag_44:\n      stop\n        /* \"contracts/Arrays.sol\":95:141  uint[] public numbers = [1,2,3,4,5,6,7,8,9,10] */\n    tag_12:\n      tag_46\n      0x04\n      dup1\n      calldatasize\n      sub\n      dup2\n      add\n      swap1\n      tag_47\n      swap2\n      swap1\n      tag_30\n      jump\t// in\n    tag_47:\n      tag_48\n      jump\t// in\n    tag_46:\n      mload(0x40)\n      tag_49\n      swap2\n      swap1\n      tag_33\n      jump\t// in\n    tag_49:\n      mload(0x40)\n      dup1\n      swap2\n      sub\n      swap1\n      return\n        /* \"contracts/Arrays.sol\":971:1694  function afterY2K () external view returns (uint[] memory, address[] memory) {... */\n    tag_15:\n        /* \"contracts/Arrays.sol\":1015:1028  uint[] memory */\n      0x60\n        /* \"contracts/Arrays.sol\":1030:1046  address[] memory */\n      dup1\n        /* \"contracts/Arrays.sol\":1058:1074  uint amountAfter */\n      0x00\n        /* \"contracts/Arrays.sol\":1089:1095  uint i */\n      dup1\n        /* \"contracts/Arrays.sol\":1084:1224  for (uint i; i < timestamps.length; i++){... */\n    tag_51:\n        /* \"contracts/Arrays.sol\":1101:1111  timestamps */\n      0x02\n        /* \"contracts/Arrays.sol\":1101:1118  timestamps.length */\n      dup1\n      sload\n      swap1\n      pop\n        /* \"contracts/Arrays.sol\":1097:1098  i */\n      dup2\n        /* \"contracts/Arrays.sol\":1097:1118  i < timestamps.length */\n      lt\n        /* \"contracts/Arrays.sol\":1084:1224  for (uint i; i < timestamps.length; i++){... */\n      iszero\n      tag_52\n      jumpi\n        /* \"contracts/Arrays.sol\":1158:1167  946702800 */\n      0x386d89d0\n        /* \"contracts/Arrays.sol\":1142:1152  timestamps */\n      0x02\n        /* \"contracts/Arrays.sol\":1153:1154  i */\n      dup3\n        /* \"contracts/Arrays.sol\":1142:1155  timestamps[i] */\n      dup2\n      sload\n      dup2\n      lt\n      tag_54\n      jumpi\n      tag_55\n      tag_56\n      jump\t// in\n    tag_55:\n    tag_54:\n      swap1\n      0x00\n      mstore\n      keccak256(0x00, 0x20)\n      add\n      sload\n        /* \"contracts/Arrays.sol\":1142:1167  timestamps[i] > 946702800 */\n      gt\n        /* \"contracts/Arrays.sol\":1138:1214  if (timestamps[i] > 946702800){... */\n      iszero\n      tag_58\n      jumpi\n        /* \"contracts/Arrays.sol\":1186:1199  amountAfter++ */\n      dup2\n      dup1\n      tag_59\n      swap1\n      tag_60\n      jump\t// in\n    tag_59:\n      swap3\n      pop\n      pop\n        /* \"contracts/Arrays.sol\":1138:1214  if (timestamps[i] > 946702800){... */\n    tag_58:\n        /* \"contracts/Arrays.sol\":1120:1123  i++ */\n      dup1\n      dup1\n      0x01\n      add\n      swap2\n      pop\n      pop\n        /* \"contracts/Arrays.sol\":1084:1224  for (uint i; i < timestamps.length; i++){... */\n      jump(tag_51)\n    tag_52:\n      pop\n        /* \"contracts/Arrays.sol\":1234:1263  uint[] memory timestampsAfter */\n      0x00\n        /* \"contracts/Arrays.sol\":1277:1288  amountAfter */\n      dup2\n        /* \"contracts/Arrays.sol\":1266:1289  new uint[](amountAfter) */\n      0xffffffffffffffff\n      dup2\n      gt\n      iszero\n      tag_61\n      jumpi\n      tag_62\n      tag_63\n      jump\t// in\n    tag_62:\n    tag_61:\n      mload(0x40)\n      swap1\n      dup1\n      dup3\n      mstore\n      dup1\n      0x20\n      mul\n      0x20\n      add\n      dup3\n      add\n      0x40\n      mstore\n      dup1\n      iszero\n      tag_64\n      jumpi\n      dup2\n      0x20\n      add\n      0x20\n      dup3\n      mul\n      dup1\n      calldatasize\n      dup4\n      calldatacopy\n      dup1\n      dup3\n      add\n      swap2\n      pop\n      pop\n      swap1\n      pop\n    tag_64:\n      pop\n        /* \"contracts/Arrays.sol\":1234:1289  uint[] memory timestampsAfter = new uint[](amountAfter) */\n      swap1\n      pop\n        /* \"contracts/Arrays.sol\":1299:1328  address[] memory sendersAfter */\n      0x00\n        /* \"contracts/Arrays.sol\":1345:1356  amountAfter */\n      dup3\n        /* \"contracts/Arrays.sol\":1331:1357  new address[](amountAfter) */\n      0xffffffffffffffff\n      dup2\n      gt\n      iszero\n      tag_65\n      jumpi\n      tag_66\n      tag_63\n      jump\t// in\n    tag_66:\n    tag_65:\n      mload(0x40)\n      swap1\n      dup1\n      dup3\n      mstore\n      dup1\n      0x20\n      mul\n      0x20\n      add\n      dup3\n      add\n      0x40\n      mstore\n      dup1\n      iszero\n      tag_67\n      jumpi\n      dup2\n      0x20\n      add\n      0x20\n      dup3\n      mul\n      dup1\n      calldatasize\n      dup4\n      calldatacopy\n      dup1\n      dup3\n      add\n      swap2\n      pop\n      pop\n      swap1\n      pop\n    tag_67:\n      pop\n        /* \"contracts/Arrays.sol\":1299:1357  address[] memory sendersAfter = new address[](amountAfter) */\n      swap1\n      pop\n        /* \"contracts/Arrays.sol\":1367:1380  uint afterIdx */\n      0x00\n        /* \"contracts/Arrays.sol\":1395:1401  uint i */\n      dup1\n        /* \"contracts/Arrays.sol\":1390:1639  for (uint i; i < timestamps.length; i++){... */\n    tag_68:\n        /* \"contracts/Arrays.sol\":1407:1417  timestamps */\n      0x02\n        /* \"contracts/Arrays.sol\":1407:1424  timestamps.length */\n      dup1\n      sload\n      swap1\n      pop\n        /* \"contracts/Arrays.sol\":1403:1404  i */\n      dup2\n        /* \"contracts/Arrays.sol\":1403:1424  i < timestamps.length */\n      lt\n        /* \"contracts/Arrays.sol\":1390:1639  for (uint i; i < timestamps.length; i++){... */\n      iszero\n      tag_69\n      jumpi\n        /* \"contracts/Arrays.sol\":1464:1473  946702800 */\n      0x386d89d0\n        /* \"contracts/Arrays.sol\":1448:1458  timestamps */\n      0x02\n        /* \"contracts/Arrays.sol\":1459:1460  i */\n      dup3\n        /* \"contracts/Arrays.sol\":1448:1461  timestamps[i] */\n      dup2\n      sload\n      dup2\n      lt\n      tag_71\n      jumpi\n      tag_72\n      tag_56\n      jump\t// in\n    tag_72:\n    tag_71:\n      swap1\n      0x00\n      mstore\n      keccak256(0x00, 0x20)\n      add\n      sload\n        /* \"contracts/Arrays.sol\":1448:1473  timestamps[i] > 946702800 */\n      gt\n        /* \"contracts/Arrays.sol\":1444:1629  if (timestamps[i] > 946702800){... */\n      iszero\n      tag_74\n      jumpi\n        /* \"contracts/Arrays.sol\":1520:1530  timestamps */\n      0x02\n        /* \"contracts/Arrays.sol\":1531:1532  i */\n      dup2\n        /* \"contracts/Arrays.sol\":1520:1533  timestamps[i] */\n      dup2\n      sload\n      dup2\n      lt\n      tag_75\n      jumpi\n      tag_76\n      tag_56\n      jump\t// in\n    tag_76:\n    tag_75:\n      swap1\n      0x00\n      mstore\n      keccak256(0x00, 0x20)\n      add\n      sload\n        /* \"contracts/Arrays.sol\":1492:1507  timestampsAfter */\n      dup5\n        /* \"contracts/Arrays.sol\":1508:1516  afterIdx */\n      dup4\n        /* \"contracts/Arrays.sol\":1492:1517  timestampsAfter[afterIdx] */\n      dup2\n      mload\n      dup2\n      lt\n      tag_78\n      jumpi\n      tag_79\n      tag_56\n      jump\t// in\n    tag_79:\n    tag_78:\n      0x20\n      mul\n      0x20\n      add\n      add\n        /* \"contracts/Arrays.sol\":1492:1533  timestampsAfter[afterIdx] = timestamps[i] */\n      dup2\n      dup2\n      mstore\n      pop\n      pop\n        /* \"contracts/Arrays.sol\":1576:1583  senders */\n      0x01\n        /* \"contracts/Arrays.sol\":1584:1585  i */\n      dup2\n        /* \"contracts/Arrays.sol\":1576:1586  senders[i] */\n      dup2\n      sload\n      dup2\n      lt\n      tag_80\n      jumpi\n      tag_81\n      tag_56\n      jump\t// in\n    tag_81:\n    tag_80:\n      swap1\n      0x00\n      mstore\n      keccak256(0x00, 0x20)\n      add\n      0x00\n      swap1\n      sload\n      swap1\n      0x0100\n      exp\n      swap1\n      div\n      0xffffffffffffffffffffffffffffffffffffffff\n      and\n        /* \"contracts/Arrays.sol\":1551:1563  sendersAfter */\n      dup4\n        /* \"contracts/Arrays.sol\":1564:1572  afterIdx */\n      dup4\n        /* \"contracts/Arrays.sol\":1551:1573  sendersAfter[afterIdx] */\n      dup2\n      mload\n      dup2\n      lt\n      tag_83\n      jumpi\n      tag_84\n      tag_56\n      jump\t// in\n    tag_84:\n    tag_83:\n      0x20\n      mul\n      0x20\n      add\n      add\n        /* \"contracts/Arrays.sol\":1551:1586  sendersAfter[afterIdx] = senders[i] */\n      swap1\n      0xffffffffffffffffffffffffffffffffffffffff\n      and\n      swap1\n      dup2\n      0xffffffffffffffffffffffffffffffffffffffff\n      and\n      dup2\n      mstore\n      pop\n      pop\n        /* \"contracts/Arrays.sol\":1604:1614  afterIdx++ */\n      dup2\n      dup1\n      tag_85\n      swap1\n      tag_60\n      jump\t// in\n    tag_85:\n      swap3\n      pop\n      pop\n        /* \"contracts/Arrays.sol\":1444:1629  if (timestamps[i] > 946702800){... */\n    tag_74:\n        /* \"contracts/Arrays.sol\":1426:1429  i++ */\n      dup1\n      dup1\n      0x01\n      add\n      swap2\n      pop\n      pop\n        /* \"contracts/Arrays.sol\":1390:1639  for (uint i; i < timestamps.length; i++){... */\n      jump(tag_68)\n    tag_69:\n      pop\n        /* \"contracts/Arrays.sol\":1657:1672  timestampsAfter */\n      dup3\n        /* \"contracts/Arrays.sol\":1674:1686  sendersAfter */\n      dup3\n        /* \"contracts/Arrays.sol\":1649:1687  return (timestampsAfter, sendersAfter) */\n      swap6\n      pop\n      swap6\n      pop\n      pop\n      pop\n      pop\n      pop\n        /* \"contracts/Arrays.sol\":971:1694  function afterY2K () external view returns (uint[] memory, address[] memory) {... */\n      swap1\n      swap2\n      jump\t// out\n        /* \"contracts/Arrays.sol\":395:822  function appendToNumbers (uint[] calldata _toAppend) external {... */\n    tag_21:\n        /* \"contracts/Arrays.sol\":467:481  uint newLength */\n      0x00\n        /* \"contracts/Arrays.sol\":501:510  _toAppend */\n      dup3\n      dup3\n        /* \"contracts/Arrays.sol\":501:517  _toAppend.length */\n      swap1\n      pop\n        /* \"contracts/Arrays.sol\":484:491  numbers */\n      0x00\n        /* \"contracts/Arrays.sol\":484:498  numbers.length */\n      dup1\n      sload\n      swap1\n      pop\n        /* \"contracts/Arrays.sol\":484:517  numbers.length + _toAppend.length */\n      tag_87\n      swap2\n      swap1\n      tag_88\n      jump\t// in\n    tag_87:\n        /* \"contracts/Arrays.sol\":467:517  uint newLength = numbers.length + _toAppend.length */\n      swap1\n      pop\n        /* \"contracts/Arrays.sol\":527:549  uint[] memory newArray */\n      0x00\n        /* \"contracts/Arrays.sol\":563:572  newLength */\n      dup2\n        /* \"contracts/Arrays.sol\":552:573  new uint[](newLength) */\n      0xffffffffffffffff\n      dup2\n      gt\n      iszero\n      tag_89\n      jumpi\n      tag_90\n      tag_63\n      jump\t// in\n    tag_90:\n    tag_89:\n      mload(0x40)\n      swap1\n      dup1\n      dup3\n      mstore\n      dup1\n      0x20\n      mul\n      0x20\n      add\n      dup3\n      add\n      0x40\n      mstore\n      dup1\n      iszero\n      tag_91\n      jumpi\n      dup2\n      0x20\n      add\n      0x20\n      dup3\n      mul\n      dup1\n      calldatasize\n      dup4\n      calldatacopy\n      dup1\n      dup3\n      add\n      swap2\n      pop\n      pop\n      swap1\n      pop\n    tag_91:\n      pop\n        /* \"contracts/Arrays.sol\":527:573  uint[] memory newArray = new uint[](newLength) */\n      swap1\n      pop\n        /* \"contracts/Arrays.sol\":589:595  uint i */\n      0x00\n        /* \"contracts/Arrays.sol\":584:670  for (uint i; i < numbers.length; i++){... */\n    tag_92:\n        /* \"contracts/Arrays.sol\":601:608  numbers */\n      0x00\n        /* \"contracts/Arrays.sol\":601:615  numbers.length */\n      dup1\n      sload\n      swap1\n      pop\n        /* \"contracts/Arrays.sol\":597:598  i */\n      dup2\n        /* \"contracts/Arrays.sol\":597:615  i < numbers.length */\n      lt\n        /* \"contracts/Arrays.sol\":584:670  for (uint i; i < numbers.length; i++){... */\n      iszero\n      tag_93\n      jumpi\n        /* \"contracts/Arrays.sol\":649:656  numbers */\n      0x00\n        /* \"contracts/Arrays.sol\":657:658  i */\n      dup2\n        /* \"contracts/Arrays.sol\":649:659  numbers[i] */\n      dup2\n      sload\n      dup2\n      lt\n      tag_95\n      jumpi\n      tag_96\n      tag_56\n      jump\t// in\n    tag_96:\n    tag_95:\n      swap1\n      0x00\n      mstore\n      keccak256(0x00, 0x20)\n      add\n      sload\n        /* \"contracts/Arrays.sol\":635:643  newArray */\n      dup3\n        /* \"contracts/Arrays.sol\":644:645  i */\n      dup3\n        /* \"contracts/Arrays.sol\":635:646  newArray[i] */\n      dup2\n      mload\n      dup2\n      lt\n      tag_98\n      jumpi\n      tag_99\n      tag_56\n      jump\t// in\n    tag_99:\n    tag_98:\n      0x20\n      mul\n      0x20\n      add\n      add\n        /* \"contracts/Arrays.sol\":635:659  newArray[i] = numbers[i] */\n      dup2\n      dup2\n      mstore\n      pop\n      pop\n        /* \"contracts/Arrays.sol\":617:620  i++ */\n      dup1\n      dup1\n      0x01\n      add\n      swap2\n      pop\n      pop\n        /* \"contracts/Arrays.sol\":584:670  for (uint i; i < numbers.length; i++){... */\n      jump(tag_92)\n    tag_93:\n      pop\n        /* \"contracts/Arrays.sol\":685:691  uint i */\n      0x00\n        /* \"contracts/Arrays.sol\":680:787  for (uint i; i < _toAppend.length; i++){... */\n    tag_100:\n        /* \"contracts/Arrays.sol\":697:706  _toAppend */\n      dup5\n      dup5\n        /* \"contracts/Arrays.sol\":697:713  _toAppend.length */\n      swap1\n      pop\n        /* \"contracts/Arrays.sol\":693:694  i */\n      dup2\n        /* \"contracts/Arrays.sol\":693:713  i < _toAppend.length */\n      lt\n        /* \"contracts/Arrays.sol\":680:787  for (uint i; i < _toAppend.length; i++){... */\n      iszero\n      tag_101\n      jumpi\n        /* \"contracts/Arrays.sol\":764:773  _toAppend */\n      dup5\n      dup5\n        /* \"contracts/Arrays.sol\":774:775  i */\n      dup3\n        /* \"contracts/Arrays.sol\":764:776  _toAppend[i] */\n      dup2\n      dup2\n      lt\n      tag_103\n      jumpi\n      tag_104\n      tag_56\n      jump\t// in\n    tag_104:\n    tag_103:\n      swap1\n      pop\n      0x20\n      mul\n      add\n      calldataload\n        /* \"contracts/Arrays.sol\":733:741  newArray */\n      dup3\n        /* \"contracts/Arrays.sol\":759:760  i */\n      dup3\n        /* \"contracts/Arrays.sol\":742:749  numbers */\n      0x00\n        /* \"contracts/Arrays.sol\":742:756  numbers.length */\n      dup1\n      sload\n      swap1\n      pop\n        /* \"contracts/Arrays.sol\":742:760  numbers.length + i */\n      tag_105\n      swap2\n      swap1\n      tag_88\n      jump\t// in\n    tag_105:\n        /* \"contracts/Arrays.sol\":733:761  newArray[numbers.length + i] */\n      dup2\n      mload\n      dup2\n      lt\n      tag_106\n      jumpi\n      tag_107\n      tag_56\n      jump\t// in\n    tag_107:\n    tag_106:\n      0x20\n      mul\n      0x20\n      add\n      add\n        /* \"contracts/Arrays.sol\":733:776  newArray[numbers.length + i] = _toAppend[i] */\n      dup2\n      dup2\n      mstore\n      pop\n      pop\n        /* \"contracts/Arrays.sol\":715:718  i++ */\n      dup1\n      dup1\n      0x01\n      add\n      swap2\n      pop\n      pop\n        /* \"contracts/Arrays.sol\":680:787  for (uint i; i < _toAppend.length; i++){... */\n      jump(tag_100)\n    tag_101:\n      pop\n        /* \"contracts/Arrays.sol\":807:815  newArray */\n      dup1\n        /* \"contracts/Arrays.sol\":797:804  numbers */\n      0x00\n        /* \"contracts/Arrays.sol\":797:815  numbers = newArray */\n      swap1\n      dup1\n      mload\n      swap1\n      0x20\n      add\n      swap1\n      tag_108\n      swap3\n      swap2\n      swap1\n      tag_109\n      jump\t// in\n    tag_108:\n      pop\n        /* \"contracts/Arrays.sol\":457:822  {... */\n      pop\n      pop\n        /* \"contracts/Arrays.sol\":395:822  function appendToNumbers (uint[] calldata _toAppend) external {... */\n      pop\n      pop\n      jump\t// out\n        /* \"contracts/Arrays.sol\":1700:1764  function resetSenders() external {... */\n    tag_23:\n        /* \"contracts/Arrays.sol\":1750:1757  senders */\n      0x01\n      0x00\n        /* \"contracts/Arrays.sol\":1743:1757  delete senders */\n      tag_111\n      swap2\n      swap1\n      tag_112\n      jump\t// in\n    tag_111:\n        /* \"contracts/Arrays.sol\":1700:1764  function resetSenders() external {... */\n      jump\t// out\n        /* \"contracts/Arrays.sol\":208:300  function getNumbers () external view returns (uint[] memory) {... */\n    tag_25:\n        /* \"contracts/Arrays.sol\":254:267  uint[] memory */\n      0x60\n        /* \"contracts/Arrays.sol\":286:293  numbers */\n      0x00\n        /* \"contracts/Arrays.sol\":279:293  return numbers */\n      dup1\n      sload\n      dup1\n      0x20\n      mul\n      0x20\n      add\n      mload(0x40)\n      swap1\n      dup2\n      add\n      0x40\n      mstore\n      dup1\n      swap3\n      swap2\n      swap1\n      dup2\n      dup2\n      mstore\n      0x20\n      add\n      dup3\n      dup1\n      sload\n      dup1\n      iszero\n      tag_114\n      jumpi\n      0x20\n      mul\n      dup3\n      add\n      swap2\n      swap1\n      0x00\n      mstore\n      keccak256(0x00, 0x20)\n      swap1\n    tag_115:\n      dup2\n      sload\n      dup2\n      mstore\n      0x20\n      add\n      swap1\n      0x01\n      add\n      swap1\n      dup1\n      dup4\n      gt\n      tag_115\n      jumpi\n    tag_114:\n      pop\n      pop\n      pop\n      pop\n      pop\n      swap1\n      pop\n        /* \"contracts/Arrays.sol\":208:300  function getNumbers () external view returns (uint[] memory) {... */\n      swap1\n      jump\t// out\n        /* \"contracts/Arrays.sol\":177:201  uint[] public timestamps */\n    tag_31:\n      0x02\n      dup2\n      dup2\n      sload\n      dup2\n      lt\n      tag_116\n      jumpi\n      0x00\n      dup1\n      revert\n    tag_116:\n      swap1\n      0x00\n      mstore\n      keccak256(0x00, 0x20)\n      add\n      0x00\n      swap2\n      pop\n      swap1\n      pop\n      sload\n      dup2\n      jump\t// out\n        /* \"contracts/Arrays.sol\":147:171  address[] public senders */\n    tag_36:\n      0x01\n      dup2\n      dup2\n      sload\n      dup2\n      lt\n      tag_118\n      jumpi\n      0x00\n      dup1\n      revert\n    tag_118:\n      swap1\n      0x00\n      mstore\n      keccak256(0x00, 0x20)\n      add\n      0x00\n      swap2\n      pop\n      sload\n      swap1\n      0x0100\n      exp\n      swap1\n      div\n      0xffffffffffffffffffffffffffffffffffffffff\n      and\n      dup2\n      jump\t// out\n        /* \"contracts/Arrays.sol\":829:965  function saveTimestamp (uint _unixTimestamp) external {... */\n    tag_41:\n        /* \"contracts/Arrays.sol\":893:900  senders */\n      0x01\n        /* \"contracts/Arrays.sol\":906:916  msg.sender */\n      caller\n        /* \"contracts/Arrays.sol\":893:917  senders.push(msg.sender) */\n      swap1\n      dup1\n      0x01\n      dup2\n      sload\n      add\n      dup1\n      dup3\n      sstore\n      dup1\n      swap2\n      pop\n      pop\n      0x01\n      swap1\n      sub\n      swap1\n      0x00\n      mstore\n      keccak256(0x00, 0x20)\n      add\n      0x00\n      swap1\n      swap2\n      swap1\n      swap2\n      swap1\n      swap2\n      0x0100\n      exp\n      dup2\n      sload\n      dup2\n      0xffffffffffffffffffffffffffffffffffffffff\n      mul\n      not\n      and\n      swap1\n      dup4\n      0xffffffffffffffffffffffffffffffffffffffff\n      and\n      mul\n      or\n      swap1\n      sstore\n      pop\n        /* \"contracts/Arrays.sol\":927:937  timestamps */\n      0x02\n        /* \"contracts/Arrays.sol\":943:957  _unixTimestamp */\n      dup2\n        /* \"contracts/Arrays.sol\":927:958  timestamps.push(_unixTimestamp) */\n      swap1\n      dup1\n      0x01\n      dup2\n      sload\n      add\n      dup1\n      dup3\n      sstore\n      dup1\n      swap2\n      pop\n      pop\n      0x01\n      swap1\n      sub\n      swap1\n      0x00\n      mstore\n      keccak256(0x00, 0x20)\n      add\n      0x00\n      swap1\n      swap2\n      swap1\n      swap2\n      swap1\n      swap2\n      pop\n      sstore\n        /* \"contracts/Arrays.sol\":829:965  function saveTimestamp (uint _unixTimestamp) external {... */\n      pop\n      jump\t// out\n        /* \"contracts/Arrays.sol\":1770:1840  function resetTimestamps() external {... */\n    tag_43:\n        /* \"contracts/Arrays.sol\":1823:1833  timestamps */\n      0x02\n      0x00\n        /* \"contracts/Arrays.sol\":1816:1833  delete timestamps */\n      tag_124\n      swap2\n      swap1\n      tag_125\n      jump\t// in\n    tag_124:\n        /* \"contracts/Arrays.sol\":1770:1840  function resetTimestamps() external {... */\n      jump\t// out\n        /* \"contracts/Arrays.sol\":306:389  function resetNumbers () external {... */\n    tag_45:\n        /* \"contracts/Arrays.sol\":350:382  numbers = [1,2,3,4,5,6,7,8,9,10] */\n      mload(0x40)\n      dup1\n      0x0140\n      add\n      0x40\n      mstore\n      dup1\n        /* \"contracts/Arrays.sol\":361:362  1 */\n      0x01\n        /* \"contracts/Arrays.sol\":350:382  numbers = [1,2,3,4,5,6,7,8,9,10] */\n      0xff\n      and\n      dup2\n      mstore\n      0x20\n      add\n        /* \"contracts/Arrays.sol\":363:364  2 */\n      0x02\n        /* \"contracts/Arrays.sol\":350:382  numbers = [1,2,3,4,5,6,7,8,9,10] */\n      0xff\n      and\n      dup2\n      mstore\n      0x20\n      add\n        /* \"contracts/Arrays.sol\":365:366  3 */\n      0x03\n        /* \"contracts/Arrays.sol\":350:382  numbers = [1,2,3,4,5,6,7,8,9,10] */\n      0xff\n      and\n      dup2\n      mstore\n      0x20\n      add\n        /* \"contracts/Arrays.sol\":367:368  4 */\n      0x04\n        /* \"contracts/Arrays.sol\":350:382  numbers = [1,2,3,4,5,6,7,8,9,10] */\n      0xff\n      and\n      dup2\n      mstore\n      0x20\n      add\n        /* \"contracts/Arrays.sol\":369:370  5 */\n      0x05\n        /* \"contracts/Arrays.sol\":350:382  numbers = [1,2,3,4,5,6,7,8,9,10] */\n      0xff\n      and\n      dup2\n      mstore\n      0x20\n      add\n        /* \"contracts/Arrays.sol\":371:372  6 */\n      0x06\n        /* \"contracts/Arrays.sol\":350:382  numbers = [1,2,3,4,5,6,7,8,9,10] */\n      0xff\n      and\n      dup2\n      mstore\n      0x20\n      add\n        /* \"contracts/Arrays.sol\":373:374  7 */\n      0x07\n        /* \"contracts/Arrays.sol\":350:382  numbers = [1,2,3,4,5,6,7,8,9,10] */\n      0xff\n      and\n      dup2\n      mstore\n      0x20\n      add\n        /* \"contracts/Arrays.sol\":375:376  8 */\n      0x08\n        /* \"contracts/Arrays.sol\":350:382  numbers = [1,2,3,4,5,6,7,8,9,10] */\n      0xff\n      and\n      dup2\n      mstore\n      0x20\n      add\n        /* \"contracts/Arrays.sol\":377:378  9 */\n      0x09\n        /* \"contracts/Arrays.sol\":350:382  numbers = [1,2,3,4,5,6,7,8,9,10] */\n      0xff\n      and\n      dup2\n      mstore\n      0x20\n      add\n        /* \"contracts/Arrays.sol\":379:381  10 */\n      0x0a\n        /* \"contracts/Arrays.sol\":350:382  numbers = [1,2,3,4,5,6,7,8,9,10] */\n      0xff\n      and\n      dup2\n      mstore\n      pop\n        /* \"contracts/Arrays.sol\":350:357  numbers */\n      0x00\n        /* \"contracts/Arrays.sol\":350:382  numbers = [1,2,3,4,5,6,7,8,9,10] */\n      swap1\n      0x0a\n      tag_127\n      swap3\n      swap2\n      swap1\n      tag_128\n      jump\t// in\n    tag_127:\n      pop\n        /* \"contracts/Arrays.sol\":306:389  function resetNumbers () external {... */\n      jump\t// out\n        /* \"contracts/Arrays.sol\":95:141  uint[] public numbers = [1,2,3,4,5,6,7,8,9,10] */\n    tag_48:\n      0x00\n      dup2\n      dup2\n      sload\n      dup2\n      lt\n      tag_129\n      jumpi\n      0x00\n      dup1\n      revert\n    tag_129:\n      swap1\n      0x00\n      mstore\n      keccak256(0x00, 0x20)\n      add\n      0x00\n      swap2\n      pop\n      swap1\n      pop\n      sload\n      dup2\n      jump\t// out\n    tag_109:\n      dup3\n      dup1\n      sload\n      dup3\n      dup3\n      sstore\n      swap1\n      0x00\n      mstore\n      keccak256(0x00, 0x20)\n      swap1\n      dup2\n      add\n      swap3\n      dup3\n      iszero\n      tag_131\n      jumpi\n      swap2\n      0x20\n      mul\n      dup3\n      add\n    tag_132:\n      dup3\n      dup2\n      gt\n      iszero\n      tag_133\n      jumpi\n      dup3\n      mload\n      dup3\n      sstore\n      swap2\n      0x20\n      add\n      swap2\n      swap1\n      0x01\n      add\n      swap1\n      jump(tag_132)\n    tag_133:\n    tag_131:\n      pop\n      swap1\n      pop\n      tag_134\n      swap2\n      swap1\n      tag_135\n      jump\t// in\n    tag_134:\n      pop\n      swap1\n      jump\t// out\n    tag_112:\n      pop\n      dup1\n      sload\n      0x00\n      dup3\n      sstore\n      swap1\n      0x00\n      mstore\n      keccak256(0x00, 0x20)\n      swap1\n      dup2\n      add\n      swap1\n      tag_137\n      swap2\n      swap1\n      tag_135\n      jump\t// in\n    tag_137:\n      pop\n      jump\t// out\n    tag_125:\n      pop\n      dup1\n      sload\n      0x00\n      dup3\n      sstore\n      swap1\n      0x00\n      mstore\n      keccak256(0x00, 0x20)\n      swap1\n      dup2\n      add\n      swap1\n      tag_139\n      swap2\n      swap1\n      tag_135\n      jump\t// in\n    tag_139:\n      pop\n      jump\t// out\n    tag_128:\n      dup3\n      dup1\n      sload\n      dup3\n      dup3\n      sstore\n      swap1\n      0x00\n      mstore\n      keccak256(0x00, 0x20)\n      swap1\n      dup2\n      add\n      swap3\n      dup3\n      iszero\n      tag_140\n      jumpi\n      swap2\n      0x20\n      mul\n      dup3\n      add\n    tag_141:\n      dup3\n      dup2\n      gt\n      iszero\n      tag_142\n      jumpi\n      dup3\n      mload\n      dup3\n      swap1\n      0xff\n      and\n      swap1\n      sstore\n      swap2\n      0x20\n      add\n      swap2\n      swap1\n      0x01\n      add\n      swap1\n      jump(tag_141)\n    tag_142:\n    tag_140:\n      pop\n      swap1\n      pop\n      tag_143\n      swap2\n      swap1\n      tag_135\n      jump\t// in\n    tag_143:\n      pop\n      swap1\n      jump\t// out\n    tag_135:\n    tag_144:\n      dup1\n      dup3\n      gt\n      iszero\n      tag_145\n      jumpi\n      0x00\n      dup2\n      0x00\n      swap1\n      sstore\n      pop\n      0x01\n      add\n      jump(tag_144)\n    tag_145:\n      pop\n      swap1\n      jump\t// out\n        /* \"#utility.yul\":7:121   */\n    tag_146:\n        /* \"#utility.yul\":74:80   */\n      0x00\n        /* \"#utility.yul\":108:113   */\n      dup2\n        /* \"#utility.yul\":102:114   */\n      mload\n        /* \"#utility.yul\":92:114   */\n      swap1\n      pop\n        /* \"#utility.yul\":7:121   */\n      swap2\n      swap1\n      pop\n      jump\t// out\n        /* \"#utility.yul\":127:311   */\n    tag_147:\n        /* \"#utility.yul\":226:237   */\n      0x00\n        /* \"#utility.yul\":260:266   */\n      dup3\n        /* \"#utility.yul\":255:258   */\n      dup3\n        /* \"#utility.yul\":248:267   */\n      mstore\n        /* \"#utility.yul\":300:304   */\n      0x20\n        /* \"#utility.yul\":295:298   */\n      dup3\n        /* \"#utility.yul\":291:305   */\n      add\n        /* \"#utility.yul\":276:305   */\n      swap1\n      pop\n        /* \"#utility.yul\":127:311   */\n      swap3\n      swap2\n      pop\n      pop\n      jump\t// out\n        /* \"#utility.yul\":317:449   */\n    tag_148:\n        /* \"#utility.yul\":384:388   */\n      0x00\n        /* \"#utility.yul\":407:410   */\n      dup2\n        /* \"#utility.yul\":399:410   */\n      swap1\n      pop\n        /* \"#utility.yul\":437:441   */\n      0x20\n        /* \"#utility.yul\":432:435   */\n      dup3\n        /* \"#utility.yul\":428:442   */\n      add\n        /* \"#utility.yul\":420:442   */\n      swap1\n      pop\n        /* \"#utility.yul\":317:449   */\n      swap2\n      swap1\n      pop\n      jump\t// out\n        /* \"#utility.yul\":455:532   */\n    tag_149:\n        /* \"#utility.yul\":492:499   */\n      0x00\n        /* \"#utility.yul\":521:526   */\n      dup2\n        /* \"#utility.yul\":510:526   */\n      swap1\n      pop\n        /* \"#utility.yul\":455:532   */\n      swap2\n      swap1\n      pop\n      jump\t// out\n        /* \"#utility.yul\":538:646   */\n    tag_150:\n        /* \"#utility.yul\":615:639   */\n      tag_181\n        /* \"#utility.yul\":633:638   */\n      dup2\n        /* \"#utility.yul\":615:639   */\n      tag_149\n      jump\t// in\n    tag_181:\n        /* \"#utility.yul\":610:613   */\n      dup3\n        /* \"#utility.yul\":603:640   */\n      mstore\n        /* \"#utility.yul\":538:646   */\n      pop\n      pop\n      jump\t// out\n        /* \"#utility.yul\":652:831   */\n    tag_151:\n        /* \"#utility.yul\":721:731   */\n      0x00\n        /* \"#utility.yul\":742:788   */\n      tag_183\n        /* \"#utility.yul\":784:787   */\n      dup4\n        /* \"#utility.yul\":776:782   */\n      dup4\n        /* \"#utility.yul\":742:788   */\n      tag_150\n      jump\t// in\n    tag_183:\n        /* \"#utility.yul\":820:824   */\n      0x20\n        /* \"#utility.yul\":815:818   */\n      dup4\n        /* \"#utility.yul\":811:825   */\n      add\n        /* \"#utility.yul\":797:825   */\n      swap1\n      pop\n        /* \"#utility.yul\":652:831   */\n      swap3\n      swap2\n      pop\n      pop\n      jump\t// out\n        /* \"#utility.yul\":837:950   */\n    tag_152:\n        /* \"#utility.yul\":907:911   */\n      0x00\n        /* \"#utility.yul\":939:943   */\n      0x20\n        /* \"#utility.yul\":934:937   */\n      dup3\n        /* \"#utility.yul\":930:944   */\n      add\n        /* \"#utility.yul\":922:944   */\n      swap1\n      pop\n        /* \"#utility.yul\":837:950   */\n      swap2\n      swap1\n      pop\n      jump\t// out\n        /* \"#utility.yul\":986:1718   */\n    tag_153:\n        /* \"#utility.yul\":1105:1108   */\n      0x00\n        /* \"#utility.yul\":1134:1188   */\n      tag_186\n        /* \"#utility.yul\":1182:1187   */\n      dup3\n        /* \"#utility.yul\":1134:1188   */\n      tag_146\n      jump\t// in\n    tag_186:\n        /* \"#utility.yul\":1204:1290   */\n      tag_187\n        /* \"#utility.yul\":1283:1289   */\n      dup2\n        /* \"#utility.yul\":1278:1281   */\n      dup6\n        /* \"#utility.yul\":1204:1290   */\n      tag_147\n      jump\t// in\n    tag_187:\n        /* \"#utility.yul\":1197:1290   */\n      swap4\n      pop\n        /* \"#utility.yul\":1314:1370   */\n      tag_188\n        /* \"#utility.yul\":1364:1369   */\n      dup4\n        /* \"#utility.yul\":1314:1370   */\n      tag_148\n      jump\t// in\n    tag_188:\n        /* \"#utility.yul\":1393:1400   */\n      dup1\n        /* \"#utility.yul\":1424:1425   */\n      0x00\n        /* \"#utility.yul\":1409:1693   */\n    tag_189:\n        /* \"#utility.yul\":1434:1440   */\n      dup4\n        /* \"#utility.yul\":1431:1432   */\n      dup2\n        /* \"#utility.yul\":1428:1441   */\n      lt\n        /* \"#utility.yul\":1409:1693   */\n      iszero\n      tag_191\n      jumpi\n        /* \"#utility.yul\":1510:1516   */\n      dup2\n        /* \"#utility.yul\":1504:1517   */\n      mload\n        /* \"#utility.yul\":1537:1600   */\n      tag_192\n        /* \"#utility.yul\":1596:1599   */\n      dup9\n        /* \"#utility.yul\":1581:1594   */\n      dup3\n        /* \"#utility.yul\":1537:1600   */\n      tag_151\n      jump\t// in\n    tag_192:\n        /* \"#utility.yul\":1530:1600   */\n      swap8\n      pop\n        /* \"#utility.yul\":1623:1683   */\n      tag_193\n        /* \"#utility.yul\":1676:1682   */\n      dup4\n        /* \"#utility.yul\":1623:1683   */\n      tag_152\n      jump\t// in\n    tag_193:\n        /* \"#utility.yul\":1613:1683   */\n      swap3\n      pop\n        /* \"#utility.yul\":1469:1693   */\n      pop\n        /* \"#utility.yul\":1456:1457   */\n      0x01\n        /* \"#utility.yul\":1453:1454   */\n      dup2\n        /* \"#utility.yul\":1449:1458   */\n      add\n        /* \"#utility.yul\":1444:1458   */\n      swap1\n      pop\n        /* \"#utility.yul\":1409:1693   */\n      jump(tag_189)\n    tag_191:\n        /* \"#utility.yul\":1413:1427   */\n      pop\n        /* \"#utility.yul\":1709:1712   */\n      dup6\n        /* \"#utility.yul\":1702:1712   */\n      swap4\n      pop\n        /* \"#utility.yul\":1110:1718   */\n      pop\n      pop\n      pop\n        /* \"#utility.yul\":986:1718   */\n      swap3\n      swap2\n      pop\n      pop\n      jump\t// out\n        /* \"#utility.yul\":1724:1838   */\n    tag_154:\n        /* \"#utility.yul\":1791:1797   */\n      0x00\n        /* \"#utility.yul\":1825:1830   */\n      dup2\n        /* \"#utility.yul\":1819:1831   */\n      mload\n        /* \"#utility.yul\":1809:1831   */\n      swap1\n      pop\n        /* \"#utility.yul\":1724:1838   */\n      swap2\n      swap1\n      pop\n      jump\t// out\n        /* \"#utility.yul\":1844:2028   */\n    tag_155:\n        /* \"#utility.yul\":1943:1954   */\n      0x00\n        /* \"#utility.yul\":1977:1983   */\n      dup3\n        /* \"#utility.yul\":1972:1975   */\n      dup3\n        /* \"#utility.yul\":1965:1984   */\n      mstore\n        /* \"#utility.yul\":2017:2021   */\n      0x20\n        /* \"#utility.yul\":2012:2015   */\n      dup3\n        /* \"#utility.yul\":2008:2022   */\n      add\n        /* \"#utility.yul\":1993:2022   */\n      swap1\n      pop\n        /* \"#utility.yul\":1844:2028   */\n      swap3\n      swap2\n      pop\n      pop\n      jump\t// out\n        /* \"#utility.yul\":2034:2166   */\n    tag_156:\n        /* \"#utility.yul\":2101:2105   */\n      0x00\n        /* \"#utility.yul\":2124:2127   */\n      dup2\n        /* \"#utility.yul\":2116:2127   */\n      swap1\n      pop\n        /* \"#utility.yul\":2154:2158   */\n      0x20\n        /* \"#utility.yul\":2149:2152   */\n      dup3\n        /* \"#utility.yul\":2145:2159   */\n      add\n        /* \"#utility.yul\":2137:2159   */\n      swap1\n      pop\n        /* \"#utility.yul\":2034:2166   */\n      swap2\n      swap1\n      pop\n      jump\t// out\n        /* \"#utility.yul\":2172:2298   */\n    tag_157:\n        /* \"#utility.yul\":2209:2216   */\n      0x00\n        /* \"#utility.yul\":2249:2291   */\n      0xffffffffffffffffffffffffffffffffffffffff\n        /* \"#utility.yul\":2242:2247   */\n      dup3\n        /* \"#utility.yul\":2238:2292   */\n      and\n        /* \"#utility.yul\":2227:2292   */\n      swap1\n      pop\n        /* \"#utility.yul\":2172:2298   */\n      swap2\n      swap1\n      pop\n      jump\t// out\n        /* \"#utility.yul\":2304:2400   */\n    tag_158:\n        /* \"#utility.yul\":2341:2348   */\n      0x00\n        /* \"#utility.yul\":2370:2394   */\n      tag_199\n        /* \"#utility.yul\":2388:2393   */\n      dup3\n        /* \"#utility.yul\":2370:2394   */\n      tag_157\n      jump\t// in\n    tag_199:\n        /* \"#utility.yul\":2359:2394   */\n      swap1\n      pop\n        /* \"#utility.yul\":2304:2400   */\n      swap2\n      swap1\n      pop\n      jump\t// out\n        /* \"#utility.yul\":2406:2514   */\n    tag_159:\n        /* \"#utility.yul\":2483:2507   */\n      tag_201\n        /* \"#utility.yul\":2501:2506   */\n      dup2\n        /* \"#utility.yul\":2483:2507   */\n      tag_158\n      jump\t// in\n    tag_201:\n        /* \"#utility.yul\":2478:2481   */\n      dup3\n        /* \"#utility.yul\":2471:2508   */\n      mstore\n        /* \"#utility.yul\":2406:2514   */\n      pop\n      pop\n      jump\t// out\n        /* \"#utility.yul\":2520:2699   */\n    tag_160:\n        /* \"#utility.yul\":2589:2599   */\n      0x00\n        /* \"#utility.yul\":2610:2656   */\n      tag_203\n        /* \"#utility.yul\":2652:2655   */\n      dup4\n        /* \"#utility.yul\":2644:2650   */\n      dup4\n        /* \"#utility.yul\":2610:2656   */\n      tag_159\n      jump\t// in\n    tag_203:\n        /* \"#utility.yul\":2688:2692   */\n      0x20\n        /* \"#utility.yul\":2683:2686   */\n      dup4\n        /* \"#utility.yul\":2679:2693   */\n      add\n        /* \"#utility.yul\":2665:2693   */\n      swap1\n      pop\n        /* \"#utility.yul\":2520:2699   */\n      swap3\n      swap2\n      pop\n      pop\n      jump\t// out\n        /* \"#utility.yul\":2705:2818   */\n    tag_161:\n        /* \"#utility.yul\":2775:2779   */\n      0x00\n        /* \"#utility.yul\":2807:2811   */\n      0x20\n        /* \"#utility.yul\":2802:2805   */\n      dup3\n        /* \"#utility.yul\":2798:2812   */\n      add\n        /* \"#utility.yul\":2790:2812   */\n      swap1\n      pop\n        /* \"#utility.yul\":2705:2818   */\n      swap2\n      swap1\n      pop\n      jump\t// out\n        /* \"#utility.yul\":2854:3586   */\n    tag_162:\n        /* \"#utility.yul\":2973:2976   */\n      0x00\n        /* \"#utility.yul\":3002:3056   */\n      tag_206\n        /* \"#utility.yul\":3050:3055   */\n      dup3\n        /* \"#utility.yul\":3002:3056   */\n      tag_154\n      jump\t// in\n    tag_206:\n        /* \"#utility.yul\":3072:3158   */\n      tag_207\n        /* \"#utility.yul\":3151:3157   */\n      dup2\n        /* \"#utility.yul\":3146:3149   */\n      dup6\n        /* \"#utility.yul\":3072:3158   */\n      tag_155\n      jump\t// in\n    tag_207:\n        /* \"#utility.yul\":3065:3158   */\n      swap4\n      pop\n        /* \"#utility.yul\":3182:3238   */\n      tag_208\n        /* \"#utility.yul\":3232:3237   */\n      dup4\n        /* \"#utility.yul\":3182:3238   */\n      tag_156\n      jump\t// in\n    tag_208:\n        /* \"#utility.yul\":3261:3268   */\n      dup1\n        /* \"#utility.yul\":3292:3293   */\n      0x00\n        /* \"#utility.yul\":3277:3561   */\n    tag_209:\n        /* \"#utility.yul\":3302:3308   */\n      dup4\n        /* \"#utility.yul\":3299:3300   */\n      dup2\n        /* \"#utility.yul\":3296:3309   */\n      lt\n        /* \"#utility.yul\":3277:3561   */\n      iszero\n      tag_211\n      jumpi\n        /* \"#utility.yul\":3378:3384   */\n      dup2\n        /* \"#utility.yul\":3372:3385   */\n      mload\n        /* \"#utility.yul\":3405:3468   */\n      tag_212\n        /* \"#utility.yul\":3464:3467   */\n      dup9\n        /* \"#utility.yul\":3449:3462   */\n      dup3\n        /* \"#utility.yul\":3405:3468   */\n      tag_160\n      jump\t// in\n    tag_212:\n        /* \"#utility.yul\":3398:3468   */\n      swap8\n      pop\n        /* \"#utility.yul\":3491:3551   */\n      tag_213\n        /* \"#utility.yul\":3544:3550   */\n      dup4\n        /* \"#utility.yul\":3491:3551   */\n      tag_161\n      jump\t// in\n    tag_213:\n        /* \"#utility.yul\":3481:3551   */\n      swap3\n      pop\n        /* \"#utility.yul\":3337:3561   */\n      pop\n        /* \"#utility.yul\":3324:3325   */\n      0x01\n        /* \"#utility.yul\":3321:3322   */\n      dup2\n        /* \"#utility.yul\":3317:3326   */\n      add\n        /* \"#utility.yul\":3312:3326   */\n      swap1\n      pop\n        /* \"#utility.yul\":3277:3561   */\n      jump(tag_209)\n    tag_211:\n        /* \"#utility.yul\":3281:3295   */\n      pop\n        /* \"#utility.yul\":3577:3580   */\n      dup6\n        /* \"#utility.yul\":3570:3580   */\n      swap4\n      pop\n        /* \"#utility.yul\":2978:3586   */\n      pop\n      pop\n      pop\n        /* \"#utility.yul\":2854:3586   */\n      swap3\n      swap2\n      pop\n      pop\n      jump\t// out\n        /* \"#utility.yul\":3592:4226   */\n    tag_17:\n        /* \"#utility.yul\":3813:3817   */\n      0x00\n        /* \"#utility.yul\":3851:3853   */\n      0x40\n        /* \"#utility.yul\":3840:3849   */\n      dup3\n        /* \"#utility.yul\":3836:3854   */\n      add\n        /* \"#utility.yul\":3828:3854   */\n      swap1\n      pop\n        /* \"#utility.yul\":3900:3909   */\n      dup2\n        /* \"#utility.yul\":3894:3898   */\n      dup2\n        /* \"#utility.yul\":3890:3910   */\n      sub\n        /* \"#utility.yul\":3886:3887   */\n      0x00\n        /* \"#utility.yul\":3875:3884   */\n      dup4\n        /* \"#utility.yul\":3871:3888   */\n      add\n        /* \"#utility.yul\":3864:3911   */\n      mstore\n        /* \"#utility.yul\":3928:4036   */\n      tag_215\n        /* \"#utility.yul\":4031:4035   */\n      dup2\n        /* \"#utility.yul\":4022:4028   */\n      dup6\n        /* \"#utility.yul\":3928:4036   */\n      tag_153\n      jump\t// in\n    tag_215:\n        /* \"#utility.yul\":3920:4036   */\n      swap1\n      pop\n        /* \"#utility.yul\":4083:4092   */\n      dup2\n        /* \"#utility.yul\":4077:4081   */\n      dup2\n        /* \"#utility.yul\":4073:4093   */\n      sub\n        /* \"#utility.yul\":4068:4070   */\n      0x20\n        /* \"#utility.yul\":4057:4066   */\n      dup4\n        /* \"#utility.yul\":4053:4071   */\n      add\n        /* \"#utility.yul\":4046:4094   */\n      mstore\n        /* \"#utility.yul\":4111:4219   */\n      tag_216\n        /* \"#utility.yul\":4214:4218   */\n      dup2\n        /* \"#utility.yul\":4205:4211   */\n      dup5\n        /* \"#utility.yul\":4111:4219   */\n      tag_162\n      jump\t// in\n    tag_216:\n        /* \"#utility.yul\":4103:4219   */\n      swap1\n      pop\n        /* \"#utility.yul\":3592:4226   */\n      swap4\n      swap3\n      pop\n      pop\n      pop\n      jump\t// out\n        /* \"#utility.yul\":4313:4430   */\n    tag_164:\n        /* \"#utility.yul\":4422:4423   */\n      0x00\n        /* \"#utility.yul\":4419:4420   */\n      dup1\n        /* \"#utility.yul\":4412:4424   */\n      revert\n        /* \"#utility.yul\":4436:4553   */\n    tag_165:\n        /* \"#utility.yul\":4545:4546   */\n      0x00\n        /* \"#utility.yul\":4542:4543   */\n      dup1\n        /* \"#utility.yul\":4535:4547   */\n      revert\n        /* \"#utility.yul\":4559:4676   */\n    tag_166:\n        /* \"#utility.yul\":4668:4669   */\n      0x00\n        /* \"#utility.yul\":4665:4666   */\n      dup1\n        /* \"#utility.yul\":4658:4670   */\n      revert\n        /* \"#utility.yul\":4682:4799   */\n    tag_167:\n        /* \"#utility.yul\":4791:4792   */\n      0x00\n        /* \"#utility.yul\":4788:4789   */\n      dup1\n        /* \"#utility.yul\":4781:4793   */\n      revert\n        /* \"#utility.yul\":4805:4922   */\n    tag_168:\n        /* \"#utility.yul\":4914:4915   */\n      0x00\n        /* \"#utility.yul\":4911:4912   */\n      dup1\n        /* \"#utility.yul\":4904:4916   */\n      revert\n        /* \"#utility.yul\":4945:5513   */\n    tag_169:\n        /* \"#utility.yul\":5018:5026   */\n      0x00\n        /* \"#utility.yul\":5028:5034   */\n      dup1\n        /* \"#utility.yul\":5078:5081   */\n      dup4\n        /* \"#utility.yul\":5071:5075   */\n      0x1f\n        /* \"#utility.yul\":5063:5069   */\n      dup5\n        /* \"#utility.yul\":5059:5076   */\n      add\n        /* \"#utility.yul\":5055:5082   */\n      slt\n        /* \"#utility.yul\":5045:5167   */\n      tag_224\n      jumpi\n        /* \"#utility.yul\":5086:5165   */\n      tag_225\n      tag_166\n      jump\t// in\n    tag_225:\n        /* \"#utility.yul\":5045:5167   */\n    tag_224:\n        /* \"#utility.yul\":5199:5205   */\n      dup3\n        /* \"#utility.yul\":5186:5206   */\n      calldataload\n        /* \"#utility.yul\":5176:5206   */\n      swap1\n      pop\n        /* \"#utility.yul\":5229:5247   */\n      0xffffffffffffffff\n        /* \"#utility.yul\":5221:5227   */\n      dup2\n        /* \"#utility.yul\":5218:5248   */\n      gt\n        /* \"#utility.yul\":5215:5332   */\n      iszero\n      tag_226\n      jumpi\n        /* \"#utility.yul\":5251:5330   */\n      tag_227\n      tag_167\n      jump\t// in\n    tag_227:\n        /* \"#utility.yul\":5215:5332   */\n    tag_226:\n        /* \"#utility.yul\":5365:5369   */\n      0x20\n        /* \"#utility.yul\":5357:5363   */\n      dup4\n        /* \"#utility.yul\":5353:5370   */\n      add\n        /* \"#utility.yul\":5341:5370   */\n      swap2\n      pop\n        /* \"#utility.yul\":5419:5422   */\n      dup4\n        /* \"#utility.yul\":5411:5415   */\n      0x20\n        /* \"#utility.yul\":5403:5409   */\n      dup3\n        /* \"#utility.yul\":5399:5416   */\n      mul\n        /* \"#utility.yul\":5389:5397   */\n      dup4\n        /* \"#utility.yul\":5385:5417   */\n      add\n        /* \"#utility.yul\":5382:5423   */\n      gt\n        /* \"#utility.yul\":5379:5507   */\n      iszero\n      tag_228\n      jumpi\n        /* \"#utility.yul\":5426:5505   */\n      tag_229\n      tag_168\n      jump\t// in\n    tag_229:\n        /* \"#utility.yul\":5379:5507   */\n    tag_228:\n        /* \"#utility.yul\":4945:5513   */\n      swap3\n      pop\n      swap3\n      swap1\n      pop\n      jump\t// out\n        /* \"#utility.yul\":5519:6078   */\n    tag_20:\n        /* \"#utility.yul\":5605:5611   */\n      0x00\n        /* \"#utility.yul\":5613:5619   */\n      dup1\n        /* \"#utility.yul\":5662:5664   */\n      0x20\n        /* \"#utility.yul\":5650:5659   */\n      dup4\n        /* \"#utility.yul\":5641:5648   */\n      dup6\n        /* \"#utility.yul\":5637:5660   */\n      sub\n        /* \"#utility.yul\":5633:5665   */\n      slt\n        /* \"#utility.yul\":5630:5749   */\n      iszero\n      tag_231\n      jumpi\n        /* \"#utility.yul\":5668:5747   */\n      tag_232\n      tag_164\n      jump\t// in\n    tag_232:\n        /* \"#utility.yul\":5630:5749   */\n    tag_231:\n        /* \"#utility.yul\":5816:5817   */\n      0x00\n        /* \"#utility.yul\":5805:5814   */\n      dup4\n        /* \"#utility.yul\":5801:5818   */\n      add\n        /* \"#utility.yul\":5788:5819   */\n      calldataload\n        /* \"#utility.yul\":5846:5864   */\n      0xffffffffffffffff\n        /* \"#utility.yul\":5838:5844   */\n      dup2\n        /* \"#utility.yul\":5835:5865   */\n      gt\n        /* \"#utility.yul\":5832:5949   */\n      iszero\n      tag_233\n      jumpi\n        /* \"#utility.yul\":5868:5947   */\n      tag_234\n      tag_165\n      jump\t// in\n    tag_234:\n        /* \"#utility.yul\":5832:5949   */\n    tag_233:\n        /* \"#utility.yul\":5981:6061   */\n      tag_235\n        /* \"#utility.yul\":6053:6060   */\n      dup6\n        /* \"#utility.yul\":6044:6050   */\n      dup3\n        /* \"#utility.yul\":6033:6042   */\n      dup7\n        /* \"#utility.yul\":6029:6051   */\n      add\n        /* \"#utility.yul\":5981:6061   */\n      tag_169\n      jump\t// in\n    tag_235:\n        /* \"#utility.yul\":5963:6061   */\n      swap3\n      pop\n      swap3\n      pop\n        /* \"#utility.yul\":5759:6071   */\n      pop\n        /* \"#utility.yul\":5519:6078   */\n      swap3\n      pop\n      swap3\n      swap1\n      pop\n      jump\t// out\n        /* \"#utility.yul\":6084:6457   */\n    tag_27:\n        /* \"#utility.yul\":6227:6231   */\n      0x00\n        /* \"#utility.yul\":6265:6267   */\n      0x20\n        /* \"#utility.yul\":6254:6263   */\n      dup3\n        /* \"#utility.yul\":6250:6268   */\n      add\n        /* \"#utility.yul\":6242:6268   */\n      swap1\n      pop\n        /* \"#utility.yul\":6314:6323   */\n      dup2\n        /* \"#utility.yul\":6308:6312   */\n      dup2\n        /* \"#utility.yul\":6304:6324   */\n      sub\n        /* \"#utility.yul\":6300:6301   */\n      0x00\n        /* \"#utility.yul\":6289:6298   */\n      dup4\n        /* \"#utility.yul\":6285:6302   */\n      add\n        /* \"#utility.yul\":6278:6325   */\n      mstore\n        /* \"#utility.yul\":6342:6450   */\n      tag_237\n        /* \"#utility.yul\":6445:6449   */\n      dup2\n        /* \"#utility.yul\":6436:6442   */\n      dup5\n        /* \"#utility.yul\":6342:6450   */\n      tag_153\n      jump\t// in\n    tag_237:\n        /* \"#utility.yul\":6334:6450   */\n      swap1\n      pop\n        /* \"#utility.yul\":6084:6457   */\n      swap3\n      swap2\n      pop\n      pop\n      jump\t// out\n        /* \"#utility.yul\":6463:6585   */\n    tag_170:\n        /* \"#utility.yul\":6536:6560   */\n      tag_239\n        /* \"#utility.yul\":6554:6559   */\n      dup2\n        /* \"#utility.yul\":6536:6560   */\n      tag_149\n      jump\t// in\n    tag_239:\n        /* \"#utility.yul\":6529:6534   */\n      dup2\n        /* \"#utility.yul\":6526:6561   */\n      eq\n        /* \"#utility.yul\":6516:6579   */\n      tag_240\n      jumpi\n        /* \"#utility.yul\":6575:6576   */\n      0x00\n        /* \"#utility.yul\":6572:6573   */\n      dup1\n        /* \"#utility.yul\":6565:6577   */\n      revert\n        /* \"#utility.yul\":6516:6579   */\n    tag_240:\n        /* \"#utility.yul\":6463:6585   */\n      pop\n      jump\t// out\n        /* \"#utility.yul\":6591:6730   */\n    tag_171:\n        /* \"#utility.yul\":6637:6642   */\n      0x00\n        /* \"#utility.yul\":6675:6681   */\n      dup2\n        /* \"#utility.yul\":6662:6682   */\n      calldataload\n        /* \"#utility.yul\":6653:6682   */\n      swap1\n      pop\n        /* \"#utility.yul\":6691:6724   */\n      tag_242\n        /* \"#utility.yul\":6718:6723   */\n      dup2\n        /* \"#utility.yul\":6691:6724   */\n      tag_170\n      jump\t// in\n    tag_242:\n        /* \"#utility.yul\":6591:6730   */\n      swap3\n      swap2\n      pop\n      pop\n      jump\t// out\n        /* \"#utility.yul\":6736:7065   */\n    tag_30:\n        /* \"#utility.yul\":6795:6801   */\n      0x00\n        /* \"#utility.yul\":6844:6846   */\n      0x20\n        /* \"#utility.yul\":6832:6841   */\n      dup3\n        /* \"#utility.yul\":6823:6830   */\n      dup5\n        /* \"#utility.yul\":6819:6842   */\n      sub\n        /* \"#utility.yul\":6815:6847   */\n      slt\n        /* \"#utility.yul\":6812:6931   */\n      iszero\n      tag_244\n      jumpi\n        /* \"#utility.yul\":6850:6929   */\n      tag_245\n      tag_164\n      jump\t// in\n    tag_245:\n        /* \"#utility.yul\":6812:6931   */\n    tag_244:\n        /* \"#utility.yul\":6970:6971   */\n      0x00\n        /* \"#utility.yul\":6995:7048   */\n      tag_246\n        /* \"#utility.yul\":7040:7047   */\n      dup5\n        /* \"#utility.yul\":7031:7037   */\n      dup3\n        /* \"#utility.yul\":7020:7029   */\n      dup6\n        /* \"#utility.yul\":7016:7038   */\n      add\n        /* \"#utility.yul\":6995:7048   */\n      tag_171\n      jump\t// in\n    tag_246:\n        /* \"#utility.yul\":6985:7048   */\n      swap2\n      pop\n        /* \"#utility.yul\":6941:7058   */\n      pop\n        /* \"#utility.yul\":6736:7065   */\n      swap3\n      swap2\n      pop\n      pop\n      jump\t// out\n        /* \"#utility.yul\":7071:7189   */\n    tag_172:\n        /* \"#utility.yul\":7158:7182   */\n      tag_248\n        /* \"#utility.yul\":7176:7181   */\n      dup2\n        /* \"#utility.yul\":7158:7182   */\n      tag_149\n      jump\t// in\n    tag_248:\n        /* \"#utility.yul\":7153:7156   */\n      dup3\n        /* \"#utility.yul\":7146:7183   */\n      mstore\n        /* \"#utility.yul\":7071:7189   */\n      pop\n      pop\n      jump\t// out\n        /* \"#utility.yul\":7195:7417   */\n    tag_33:\n        /* \"#utility.yul\":7288:7292   */\n      0x00\n        /* \"#utility.yul\":7326:7328   */\n      0x20\n        /* \"#utility.yul\":7315:7324   */\n      dup3\n        /* \"#utility.yul\":7311:7329   */\n      add\n        /* \"#utility.yul\":7303:7329   */\n      swap1\n      pop\n        /* \"#utility.yul\":7339:7410   */\n      tag_250\n        /* \"#utility.yul\":7407:7408   */\n      0x00\n        /* \"#utility.yul\":7396:7405   */\n      dup4\n        /* \"#utility.yul\":7392:7409   */\n      add\n        /* \"#utility.yul\":7383:7389   */\n      dup5\n        /* \"#utility.yul\":7339:7410   */\n      tag_172\n      jump\t// in\n    tag_250:\n        /* \"#utility.yul\":7195:7417   */\n      swap3\n      swap2\n      pop\n      pop\n      jump\t// out\n        /* \"#utility.yul\":7423:7541   */\n    tag_173:\n        /* \"#utility.yul\":7510:7534   */\n      tag_252\n        /* \"#utility.yul\":7528:7533   */\n      dup2\n        /* \"#utility.yul\":7510:7534   */\n      tag_158\n      jump\t// in\n    tag_252:\n        /* \"#utility.yul\":7505:7508   */\n      dup3\n        /* \"#utility.yul\":7498:7535   */\n      mstore\n        /* \"#utility.yul\":7423:7541   */\n      pop\n      pop\n      jump\t// out\n        /* \"#utility.yul\":7547:7769   */\n    tag_38:\n        /* \"#utility.yul\":7640:7644   */\n      0x00\n        /* \"#utility.yul\":7678:7680   */\n      0x20\n        /* \"#utility.yul\":7667:7676   */\n      dup3\n        /* \"#utility.yul\":7663:7681   */\n      add\n        /* \"#utility.yul\":7655:7681   */\n      swap1\n      pop\n        /* \"#utility.yul\":7691:7762   */\n      tag_254\n        /* \"#utility.yul\":7759:7760   */\n      0x00\n        /* \"#utility.yul\":7748:7757   */\n      dup4\n        /* \"#utility.yul\":7744:7761   */\n      add\n        /* \"#utility.yul\":7735:7741   */\n      dup5\n        /* \"#utility.yul\":7691:7762   */\n      tag_173\n      jump\t// in\n    tag_254:\n        /* \"#utility.yul\":7547:7769   */\n      swap3\n      swap2\n      pop\n      pop\n      jump\t// out\n        /* \"#utility.yul\":7775:7955   */\n    tag_56:\n        /* \"#utility.yul\":7823:7900   */\n      0x4e487b7100000000000000000000000000000000000000000000000000000000\n        /* \"#utility.yul\":7820:7821   */\n      0x00\n        /* \"#utility.yul\":7813:7901   */\n      mstore\n        /* \"#utility.yul\":7920:7924   */\n      0x32\n        /* \"#utility.yul\":7917:7918   */\n      0x04\n        /* \"#utility.yul\":7910:7925   */\n      mstore\n        /* \"#utility.yul\":7944:7948   */\n      0x24\n        /* \"#utility.yul\":7941:7942   */\n      0x00\n        /* \"#utility.yul\":7934:7949   */\n      revert\n        /* \"#utility.yul\":7961:8141   */\n    tag_174:\n        /* \"#utility.yul\":8009:8086   */\n      0x4e487b7100000000000000000000000000000000000000000000000000000000\n        /* \"#utility.yul\":8006:8007   */\n      0x00\n        /* \"#utility.yul\":7999:8087   */\n      mstore\n        /* \"#utility.yul\":8106:8110   */\n      0x11\n        /* \"#utility.yul\":8103:8104   */\n      0x04\n        /* \"#utility.yul\":8096:8111   */\n      mstore\n        /* \"#utility.yul\":8130:8134   */\n      0x24\n        /* \"#utility.yul\":8127:8128   */\n      0x00\n        /* \"#utility.yul\":8120:8135   */\n      revert\n        /* \"#utility.yul\":8147:8380   */\n    tag_60:\n        /* \"#utility.yul\":8186:8189   */\n      0x00\n        /* \"#utility.yul\":8209:8233   */\n      tag_258\n        /* \"#utility.yul\":8227:8232   */\n      dup3\n        /* \"#utility.yul\":8209:8233   */\n      tag_149\n      jump\t// in\n    tag_258:\n        /* \"#utility.yul\":8200:8233   */\n      swap2\n      pop\n        /* \"#utility.yul\":8255:8321   */\n      0xffffffffffffffffffffffffffffffffffffffffffffffffffffffffffffffff\n        /* \"#utility.yul\":8248:8253   */\n      dup3\n        /* \"#utility.yul\":8245:8322   */\n      sub\n        /* \"#utility.yul\":8242:8345   */\n      tag_259\n      jumpi\n        /* \"#utility.yul\":8325:8343   */\n      tag_260\n      tag_174\n      jump\t// in\n    tag_260:\n        /* \"#utility.yul\":8242:8345   */\n    tag_259:\n        /* \"#utility.yul\":8372:8373   */\n      0x01\n        /* \"#utility.yul\":8365:8370   */\n      dup3\n        /* \"#utility.yul\":8361:8374   */\n      add\n        /* \"#utility.yul\":8354:8374   */\n      swap1\n      pop\n        /* \"#utility.yul\":8147:8380   */\n      swap2\n      swap1\n      pop\n      jump\t// out\n        /* \"#utility.yul\":8386:8566   */\n    tag_63:\n        /* \"#utility.yul\":8434:8511   */\n      0x4e487b7100000000000000000000000000000000000000000000000000000000\n        /* \"#utility.yul\":8431:8432   */\n      0x00\n        /* \"#utility.yul\":8424:8512   */\n      mstore\n        /* \"#utility.yul\":8531:8535   */\n      0x41\n        /* \"#utility.yul\":8528:8529   */\n      0x04\n        /* \"#utility.yul\":8521:8536   */\n      mstore\n        /* \"#utility.yul\":8555:8559   */\n      0x24\n        /* \"#utility.yul\":8552:8553   */\n      0x00\n        /* \"#utility.yul\":8545:8560   */\n      revert\n        /* \"#utility.yul\":8572:8763   */\n    tag_88:\n        /* \"#utility.yul\":8612:8615   */\n      0x00\n        /* \"#utility.yul\":8631:8651   */\n      tag_263\n        /* \"#utility.yul\":8649:8650   */\n      dup3\n        /* \"#utility.yul\":8631:8651   */\n      tag_149\n      jump\t// in\n    tag_263:\n        /* \"#utility.yul\":8626:8651   */\n      swap2\n      pop\n        /* \"#utility.yul\":8665:8685   */\n      tag_264\n        /* \"#utility.yul\":8683:8684   */\n      dup4\n        /* \"#utility.yul\":8665:8685   */\n      tag_149\n      jump\t// in\n    tag_264:\n        /* \"#utility.yul\":8660:8685   */\n      swap3\n      pop\n        /* \"#utility.yul\":8708:8709   */\n      dup3\n        /* \"#utility.yul\":8705:8706   */\n      dup3\n        /* \"#utility.yul\":8701:8710   */\n      add\n        /* \"#utility.yul\":8694:8710   */\n      swap1\n      pop\n        /* \"#utility.yul\":8729:8732   */\n      dup1\n        /* \"#utility.yul\":8726:8727   */\n      dup3\n        /* \"#utility.yul\":8723:8733   */\n      gt\n        /* \"#utility.yul\":8720:8756   */\n      iszero\n      tag_265\n      jumpi\n        /* \"#utility.yul\":8736:8754   */\n      tag_266\n      tag_174\n      jump\t// in\n    tag_266:\n        /* \"#utility.yul\":8720:8756   */\n    tag_265:\n        /* \"#utility.yul\":8572:8763   */\n      swap3\n      swap2\n      pop\n      pop\n      jump\t// out\n\n    auxdata: 0xa2646970667358221220962d630710440e42d4928cfe2a9b38d2e77c3c950c4c945f639329fb84c5c42264736f6c63430008190033\n}\n",
				"bytecode": {
					"linkReferences": {},
					"object": "6080604052604051806101400160405280600160ff168152602001600260ff168152602001600360ff168152602001600460ff168152602001600560ff168152602001600660ff168152602001600760ff168152602001600860ff168152602001600960ff168152602001600a60ff168152505f90600a610081929190610093565b5034801561008d575f80fd5b506100fe565b828054828255905f5260205f209081019282156100d2579160200282015b828111156100d1578251829060ff169055916020019190600101906100b1565b5b5090506100df91906100e3565b5090565b5b808211156100fa575f815f9055506001016100e4565b5090565b610c878061010b5f395ff3fe608060405234801561000f575f80fd5b506004361061009c575f3560e01c80639977c78a116100645780639977c78a14610133578063a00b7acd14610163578063ade82bfd1461017f578063b1cebac514610189578063d39fa233146101935761009c565b806320aaf79a146100a05780634f9377db146100bf5780637f66b1b8146100db57806389f915f6146100e55780638bc33af314610103575b5f80fd5b6100a86101c3565b6040516100b69291906109a2565b60405180910390f35b6100d960048036038101906100d49190610a40565b6103db565b005b6100e3610513565b005b6100ed610522565b6040516100fa9190610a8b565b60405180910390f35b61011d60048036038101906101189190610ad5565b610577565b60405161012a9190610b0f565b60405180910390f35b61014d60048036038101906101489190610ad5565b610597565b60405161015a9190610b37565b60405180910390f35b61017d60048036038101906101789190610ad5565b6105d2565b005b61018761065b565b005b61019161066a565b005b6101ad60048036038101906101a89190610ad5565b6106ea565b6040516101ba9190610b0f565b60405180910390f35b6060805f805b60028054905081101561021a5763386d89d0600282815481106101ef576101ee610b50565b5b905f5260205f200154111561020d57818061020990610baa565b9250505b80806001019150506101c9565b505f8167ffffffffffffffff81111561023657610235610bf1565b5b6040519080825280602002602001820160405280156102645781602001602082028036833780820191505090505b5090505f8267ffffffffffffffff81111561028257610281610bf1565b5b6040519080825280602002602001820160405280156102b05781602001602082028036833780820191505090505b5090505f805b6002805490508110156103cc5763386d89d0600282815481106102dc576102db610b50565b5b905f5260205f20015411156103bf57600281815481106102ff576102fe610b50565b5b905f5260205f20015484838151811061031b5761031a610b50565b5b6020026020010181815250506001818154811061033b5761033a610b50565b5b905f5260205f20015f9054906101000a900473ffffffffffffffffffffffffffffffffffffffff1683838151811061037657610375610b50565b5b602002602001019073ffffffffffffffffffffffffffffffffffffffff16908173ffffffffffffffffffffffffffffffffffffffff168152505081806103bb90610baa565b9250505b80806001019150506102b6565b50828295509550505050509091565b5f828290505f805490506103ef9190610c1e565b90505f8167ffffffffffffffff81111561040c5761040b610bf1565b5b60405190808252806020026020018201604052801561043a5781602001602082028036833780820191505090505b5090505f5b5f80549050811015610493575f818154811061045e5761045d610b50565b5b905f5260205f20015482828151811061047a57610479610b50565b5b602002602001018181525050808060010191505061043f565b505f5b848490508110156104f6578484828181106104b4576104b3610b50565b5b9050602002013582825f805490506104cc9190610c1e565b815181106104dd576104dc610b50565b5b6020026020010181815250508080600101915050610496565b50805f908051906020019061050c929190610709565b5050505050565b60015f6105209190610754565b565b60605f80548060200260200160405190810160405280929190818152602001828054801561056d57602002820191905f5260205f20905b815481526020019060010190808311610559575b5050505050905090565b60028181548110610586575f80fd5b905f5260205f20015f915090505481565b600181815481106105a6575f80fd5b905f5260205f20015f915054906101000a900473ffffffffffffffffffffffffffffffffffffffff1681565b600133908060018154018082558091505060019003905f5260205f20015f9091909190916101000a81548173ffffffffffffffffffffffffffffffffffffffff021916908373ffffffffffffffffffffffffffffffffffffffff160217905550600281908060018154018082558091505060019003905f5260205f20015f909190919091505550565b60025f6106689190610772565b565b604051806101400160405280600160ff168152602001600260ff168152602001600360ff168152602001600460ff168152602001600560ff168152602001600660ff168152602001600760ff168152602001600860ff168152602001600960ff168152602001600a60ff168152505f90600a6106e7929190610790565b50565b5f81815481106106f8575f80fd5b905f5260205f20015f915090505481565b828054828255905f5260205f20908101928215610743579160200282015b82811115610742578251825591602001919060010190610727565b5b50905061075091906107e0565b5090565b5080545f8255905f5260205f209081019061076f91906107e0565b50565b5080545f8255905f5260205f209081019061078d91906107e0565b50565b828054828255905f5260205f209081019282156107cf579160200282015b828111156107ce578251829060ff169055916020019190600101906107ae565b5b5090506107dc91906107e0565b5090565b5b808211156107f7575f815f9055506001016107e1565b5090565b5f81519050919050565b5f82825260208201905092915050565b5f819050602082019050919050565b5f819050919050565b61083681610824565b82525050565b5f610847838361082d565b60208301905092915050565b5f602082019050919050565b5f610869826107fb565b6108738185610805565b935061087e83610815565b805f5b838110156108ae578151610895888261083c565b97506108a083610853565b925050600181019050610881565b5085935050505092915050565b5f81519050919050565b5f82825260208201905092915050565b5f819050602082019050919050565b5f73ffffffffffffffffffffffffffffffffffffffff82169050919050565b5f61090d826108e4565b9050919050565b61091d81610903565b82525050565b5f61092e8383610914565b60208301905092915050565b5f602082019050919050565b5f610950826108bb565b61095a81856108c5565b9350610965836108d5565b805f5b8381101561099557815161097c8882610923565b97506109878361093a565b925050600181019050610968565b5085935050505092915050565b5f6040820190508181035f8301526109ba818561085f565b905081810360208301526109ce8184610946565b90509392505050565b5f80fd5b5f80fd5b5f80fd5b5f80fd5b5f80fd5b5f8083601f840112610a00576109ff6109df565b5b8235905067ffffffffffffffff811115610a1d57610a1c6109e3565b5b602083019150836020820283011115610a3957610a386109e7565b5b9250929050565b5f8060208385031215610a5657610a556109d7565b5b5f83013567ffffffffffffffff811115610a7357610a726109db565b5b610a7f858286016109eb565b92509250509250929050565b5f6020820190508181035f830152610aa3818461085f565b905092915050565b610ab481610824565b8114610abe575f80fd5b50565b5f81359050610acf81610aab565b92915050565b5f60208284031215610aea57610ae96109d7565b5b5f610af784828501610ac1565b91505092915050565b610b0981610824565b82525050565b5f602082019050610b225f830184610b00565b92915050565b610b3181610903565b82525050565b5f602082019050610b4a5f830184610b28565b92915050565b7f4e487b71000000000000000000000000000000000000000000000000000000005f52603260045260245ffd5b7f4e487b71000000000000000000000000000000000000000000000000000000005f52601160045260245ffd5b5f610bb482610824565b91507fffffffffffffffffffffffffffffffffffffffffffffffffffffffffffffffff8203610be657610be5610b7d565b5b600182019050919050565b7f4e487b71000000000000000000000000000000000000000000000000000000005f52604160045260245ffd5b5f610c2882610824565b9150610c3383610824565b9250828201905080821115610c4b57610c4a610b7d565b5b9291505056fea2646970667358221220962d630710440e42d4928cfe2a9b38d2e77c3c950c4c945f639329fb84c5c42264736f6c63430008190033",
					"opcodes": "PUSH1 0x80 PUSH1 0x40 MSTORE PUSH1 0x40 MLOAD DUP1 PUSH2 0x140 ADD PUSH1 0x40 MSTORE DUP1 PUSH1 0x1 PUSH1 0xFF AND DUP2 MSTORE PUSH1 0x20 ADD PUSH1 0x2 PUSH1 0xFF AND DUP2 MSTORE PUSH1 0x20 ADD PUSH1 0x3 PUSH1 0xFF AND DUP2 MSTORE PUSH1 0x20 ADD PUSH1 0x4 PUSH1 0xFF AND DUP2 MSTORE PUSH1 0x20 ADD PUSH1 0x5 PUSH1 0xFF AND DUP2 MSTORE PUSH1 0x20 ADD PUSH1 0x6 PUSH1 0xFF AND DUP2 MSTORE PUSH1 0x20 ADD PUSH1 0x7 PUSH1 0xFF AND DUP2 MSTORE PUSH1 0x20 ADD PUSH1 0x8 PUSH1 0xFF AND DUP2 MSTORE PUSH1 0x20 ADD PUSH1 0x9 PUSH1 0xFF AND DUP2 MSTORE PUSH1 0x20 ADD PUSH1 0xA PUSH1 0xFF AND DUP2 MSTORE POP PUSH0 SWAP1 PUSH1 0xA PUSH2 0x81 SWAP3 SWAP2 SWAP1 PUSH2 0x93 JUMP JUMPDEST POP CALLVALUE DUP1 ISZERO PUSH2 0x8D JUMPI PUSH0 DUP1 REVERT JUMPDEST POP PUSH2 0xFE JUMP JUMPDEST DUP3 DUP1 SLOAD DUP3 DUP3 SSTORE SWAP1 PUSH0 MSTORE PUSH1 0x20 PUSH0 KECCAK256 SWAP1 DUP2 ADD SWAP3 DUP3 ISZERO PUSH2 0xD2 JUMPI SWAP2 PUSH1 0x20 MUL DUP3 ADD JUMPDEST DUP3 DUP2 GT ISZERO PUSH2 0xD1 JUMPI DUP3 MLOAD DUP3 SWAP1 PUSH1 0xFF AND SWAP1 SSTORE SWAP2 PUSH1 0x20 ADD SWAP2 SWAP1 PUSH1 0x1 ADD SWAP1 PUSH2 0xB1 JUMP JUMPDEST JUMPDEST POP SWAP1 POP PUSH2 0xDF SWAP2 SWAP1 PUSH2 0xE3 JUMP JUMPDEST POP SWAP1 JUMP JUMPDEST JUMPDEST DUP1 DUP3 GT ISZERO PUSH2 0xFA JUMPI PUSH0 DUP2 PUSH0 SWAP1 SSTORE POP PUSH1 0x1 ADD PUSH2 0xE4 JUMP JUMPDEST POP SWAP1 JUMP JUMPDEST PUSH2 0xC87 DUP1 PUSH2 0x10B PUSH0 CODECOPY PUSH0 RETURN INVALID PUSH1 0x80 PUSH1 0x40 MSTORE CALLVALUE DUP1 ISZERO PUSH2 0xF JUMPI PUSH0 DUP1 REVERT JUMPDEST POP PUSH1 0x4 CALLDATASIZE LT PUSH2 0x9C JUMPI PUSH0 CALLDATALOAD PUSH1 0xE0 SHR DUP1 PUSH4 0x9977C78A GT PUSH2 0x64 JUMPI DUP1 PUSH4 0x9977C78A EQ PUSH2 0x133 JUMPI DUP1 PUSH4 0xA00B7ACD EQ PUSH2 0x163 JUMPI DUP1 PUSH4 0xADE82BFD EQ PUSH2 0x17F JUMPI DUP1 PUSH4 0xB1CEBAC5 EQ PUSH2 0x189 JUMPI DUP1 PUSH4 0xD39FA233 EQ PUSH2 0x193 JUMPI PUSH2 0x9C JUMP JUMPDEST DUP1 PUSH4 0x20AAF79A EQ PUSH2 0xA0 JUMPI DUP1 PUSH4 0x4F9377DB EQ PUSH2 0xBF JUMPI DUP1 PUSH4 0x7F66B1B8 EQ PUSH2 0xDB JUMPI DUP1 PUSH4 0x89F915F6 EQ PUSH2 0xE5 JUMPI DUP1 PUSH4 0x8BC33AF3 EQ PUSH2 0x103 JUMPI JUMPDEST PUSH0 DUP1 REVERT JUMPDEST PUSH2 0xA8 PUSH2 0x1C3 JUMP JUMPDEST PUSH1 0x40 MLOAD PUSH2 0xB6 SWAP3 SWAP2 SWAP1 PUSH2 0x9A2 JUMP JUMPDEST PUSH1 0x40 MLOAD DUP1 SWAP2 SUB SWAP1 RETURN JUMPDEST PUSH2 0xD9 PUSH1 0x4 DUP1 CALLDATASIZE SUB DUP2 ADD SWAP1 PUSH2 0xD4 SWAP2 SWAP1 PUSH2 0xA40 JUMP JUMPDEST PUSH2 0x3DB JUMP JUMPDEST STOP JUMPDEST PUSH2 0xE3 PUSH2 0x513 JUMP JUMPDEST STOP JUMPDEST PUSH2 0xED PUSH2 0x522 JUMP JUMPDEST PUSH1 0x40 MLOAD PUSH2 0xFA SWAP2 SWAP1 PUSH2 0xA8B JUMP JUMPDEST PUSH1 0x40 MLOAD DUP1 SWAP2 SUB SWAP1 RETURN JUMPDEST PUSH2 0x11D PUSH1 0x4 DUP1 CALLDATASIZE SUB DUP2 ADD SWAP1 PUSH2 0x118 SWAP2 SWAP1 PUSH2 0xAD5 JUMP JUMPDEST PUSH2 0x577 JUMP JUMPDEST PUSH1 0x40 MLOAD PUSH2 0x12A SWAP2 SWAP1 PUSH2 0xB0F JUMP JUMPDEST PUSH1 0x40 MLOAD DUP1 SWAP2 SUB SWAP1 RETURN JUMPDEST PUSH2 0x14D PUSH1 0x4 DUP1 CALLDATASIZE SUB DUP2 ADD SWAP1 PUSH2 0x148 SWAP2 SWAP1 PUSH2 0xAD5 JUMP JUMPDEST PUSH2 0x597 JUMP JUMPDEST PUSH1 0x40 MLOAD PUSH2 0x15A SWAP2 SWAP1 PUSH2 0xB37 JUMP JUMPDEST PUSH1 0x40 MLOAD DUP1 SWAP2 SUB SWAP1 RETURN JUMPDEST PUSH2 0x17D PUSH1 0x4 DUP1 CALLDATASIZE SUB DUP2 ADD SWAP1 PUSH2 0x178 SWAP2 SWAP1 PUSH2 0xAD5 JUMP JUMPDEST PUSH2 0x5D2 JUMP JUMPDEST STOP JUMPDEST PUSH2 0x187 PUSH2 0x65B JUMP JUMPDEST STOP JUMPDEST PUSH2 0x191 PUSH2 0x66A JUMP JUMPDEST STOP JUMPDEST PUSH2 0x1AD PUSH1 0x4 DUP1 CALLDATASIZE SUB DUP2 ADD SWAP1 PUSH2 0x1A8 SWAP2 SWAP1 PUSH2 0xAD5 JUMP JUMPDEST PUSH2 0x6EA JUMP JUMPDEST PUSH1 0x40 MLOAD PUSH2 0x1BA SWAP2 SWAP1 PUSH2 0xB0F JUMP JUMPDEST PUSH1 0x40 MLOAD DUP1 SWAP2 SUB SWAP1 RETURN JUMPDEST PUSH1 0x60 DUP1 PUSH0 DUP1 JUMPDEST PUSH1 0x2 DUP1 SLOAD SWAP1 POP DUP2 LT ISZERO PUSH2 0x21A JUMPI PUSH4 0x386D89D0 PUSH1 0x2 DUP3 DUP2 SLOAD DUP2 LT PUSH2 0x1EF JUMPI PUSH2 0x1EE PUSH2 0xB50 JUMP JUMPDEST JUMPDEST SWAP1 PUSH0 MSTORE PUSH1 0x20 PUSH0 KECCAK256 ADD SLOAD GT ISZERO PUSH2 0x20D JUMPI DUP2 DUP1 PUSH2 0x209 SWAP1 PUSH2 0xBAA JUMP JUMPDEST SWAP3 POP POP JUMPDEST DUP1 DUP1 PUSH1 0x1 ADD SWAP2 POP POP PUSH2 0x1C9 JUMP JUMPDEST POP PUSH0 DUP2 PUSH8 0xFFFFFFFFFFFFFFFF DUP2 GT ISZERO PUSH2 0x236 JUMPI PUSH2 0x235 PUSH2 0xBF1 JUMP JUMPDEST JUMPDEST PUSH1 0x40 MLOAD SWAP1 DUP1 DUP3 MSTORE DUP1 PUSH1 0x20 MUL PUSH1 0x20 ADD DUP3 ADD PUSH1 0x40 MSTORE DUP1 ISZERO PUSH2 0x264 JUMPI DUP2 PUSH1 0x20 ADD PUSH1 0x20 DUP3 MUL DUP1 CALLDATASIZE DUP4 CALLDATACOPY DUP1 DUP3 ADD SWAP2 POP POP SWAP1 POP JUMPDEST POP SWAP1 POP PUSH0 DUP3 PUSH8 0xFFFFFFFFFFFFFFFF DUP2 GT ISZERO PUSH2 0x282 JUMPI PUSH2 0x281 PUSH2 0xBF1 JUMP JUMPDEST JUMPDEST PUSH1 0x40 MLOAD SWAP1 DUP1 DUP3 MSTORE DUP1 PUSH1 0x20 MUL PUSH1 0x20 ADD DUP3 ADD PUSH1 0x40 MSTORE DUP1 ISZERO PUSH2 0x2B0 JUMPI DUP2 PUSH1 0x20 ADD PUSH1 0x20 DUP3 MUL DUP1 CALLDATASIZE DUP4 CALLDATACOPY DUP1 DUP3 ADD SWAP2 POP POP SWAP1 POP JUMPDEST POP SWAP1 POP PUSH0 DUP1 JUMPDEST PUSH1 0x2 DUP1 SLOAD SWAP1 POP DUP2 LT ISZERO PUSH2 0x3CC JUMPI PUSH4 0x386D89D0 PUSH1 0x2 DUP3 DUP2 SLOAD DUP2 LT PUSH2 0x2DC JUMPI PUSH2 0x2DB PUSH2 0xB50 JUMP JUMPDEST JUMPDEST SWAP1 PUSH0 MSTORE PUSH1 0x20 PUSH0 KECCAK256 ADD SLOAD GT ISZERO PUSH2 0x3BF JUMPI PUSH1 0x2 DUP2 DUP2 SLOAD DUP2 LT PUSH2 0x2FF JUMPI PUSH2 0x2FE PUSH2 0xB50 JUMP JUMPDEST JUMPDEST SWAP1 PUSH0 MSTORE PUSH1 0x20 PUSH0 KECCAK256 ADD SLOAD DUP5 DUP4 DUP2 MLOAD DUP2 LT PUSH2 0x31B JUMPI PUSH2 0x31A PUSH2 0xB50 JUMP JUMPDEST JUMPDEST PUSH1 0x20 MUL PUSH1 0x20 ADD ADD DUP2 DUP2 MSTORE POP POP PUSH1 0x1 DUP2 DUP2 SLOAD DUP2 LT PUSH2 0x33B JUMPI PUSH2 0x33A PUSH2 0xB50 JUMP JUMPDEST JUMPDEST SWAP1 PUSH0 MSTORE PUSH1 0x20 PUSH0 KECCAK256 ADD PUSH0 SWAP1 SLOAD SWAP1 PUSH2 0x100 EXP SWAP1 DIV PUSH20 0xFFFFFFFFFFFFFFFFFFFFFFFFFFFFFFFFFFFFFFFF AND DUP4 DUP4 DUP2 MLOAD DUP2 LT PUSH2 0x376 JUMPI PUSH2 0x375 PUSH2 0xB50 JUMP JUMPDEST JUMPDEST PUSH1 0x20 MUL PUSH1 0x20 ADD ADD SWAP1 PUSH20 0xFFFFFFFFFFFFFFFFFFFFFFFFFFFFFFFFFFFFFFFF AND SWAP1 DUP2 PUSH20 0xFFFFFFFFFFFFFFFFFFFFFFFFFFFFFFFFFFFFFFFF AND DUP2 MSTORE POP POP DUP2 DUP1 PUSH2 0x3BB SWAP1 PUSH2 0xBAA JUMP JUMPDEST SWAP3 POP POP JUMPDEST DUP1 DUP1 PUSH1 0x1 ADD SWAP2 POP POP PUSH2 0x2B6 JUMP JUMPDEST POP DUP3 DUP3 SWAP6 POP SWAP6 POP POP POP POP POP SWAP1 SWAP2 JUMP JUMPDEST PUSH0 DUP3 DUP3 SWAP1 POP PUSH0 DUP1 SLOAD SWAP1 POP PUSH2 0x3EF SWAP2 SWAP1 PUSH2 0xC1E JUMP JUMPDEST SWAP1 POP PUSH0 DUP2 PUSH8 0xFFFFFFFFFFFFFFFF DUP2 GT ISZERO PUSH2 0x40C JUMPI PUSH2 0x40B PUSH2 0xBF1 JUMP JUMPDEST JUMPDEST PUSH1 0x40 MLOAD SWAP1 DUP1 DUP3 MSTORE DUP1 PUSH1 0x20 MUL PUSH1 0x20 ADD DUP3 ADD PUSH1 0x40 MSTORE DUP1 ISZERO PUSH2 0x43A JUMPI DUP2 PUSH1 0x20 ADD PUSH1 0x20 DUP3 MUL DUP1 CALLDATASIZE DUP4 CALLDATACOPY DUP1 DUP3 ADD SWAP2 POP POP SWAP1 POP JUMPDEST POP SWAP1 POP PUSH0 JUMPDEST PUSH0 DUP1 SLOAD SWAP1 POP DUP2 LT ISZERO PUSH2 0x493 JUMPI PUSH0 DUP2 DUP2 SLOAD DUP2 LT PUSH2 0x45E JUMPI PUSH2 0x45D PUSH2 0xB50 JUMP JUMPDEST JUMPDEST SWAP1 PUSH0 MSTORE PUSH1 0x20 PUSH0 KECCAK256 ADD SLOAD DUP3 DUP3 DUP2 MLOAD DUP2 LT PUSH2 0x47A JUMPI PUSH2 0x479 PUSH2 0xB50 JUMP JUMPDEST JUMPDEST PUSH1 0x20 MUL PUSH1 0x20 ADD ADD DUP2 DUP2 MSTORE POP POP DUP1 DUP1 PUSH1 0x1 ADD SWAP2 POP POP PUSH2 0x43F JUMP JUMPDEST POP PUSH0 JUMPDEST DUP5 DUP5 SWAP1 POP DUP2 LT ISZERO PUSH2 0x4F6 JUMPI DUP5 DUP5 DUP3 DUP2 DUP2 LT PUSH2 0x4B4 JUMPI PUSH2 0x4B3 PUSH2 0xB50 JUMP JUMPDEST JUMPDEST SWAP1 POP PUSH1 0x20 MUL ADD CALLDATALOAD DUP3 DUP3 PUSH0 DUP1 SLOAD SWAP1 POP PUSH2 0x4CC SWAP2 SWAP1 PUSH2 0xC1E JUMP JUMPDEST DUP2 MLOAD DUP2 LT PUSH2 0x4DD JUMPI PUSH2 0x4DC PUSH2 0xB50 JUMP JUMPDEST JUMPDEST PUSH1 0x20 MUL PUSH1 0x20 ADD ADD DUP2 DUP2 MSTORE POP POP DUP1 DUP1 PUSH1 0x1 ADD SWAP2 POP POP PUSH2 0x496 JUMP JUMPDEST POP DUP1 PUSH0 SWAP1 DUP1 MLOAD SWAP1 PUSH1 0x20 ADD SWAP1 PUSH2 0x50C SWAP3 SWAP2 SWAP1 PUSH2 0x709 JUMP JUMPDEST POP POP POP POP POP JUMP JUMPDEST PUSH1 0x1 PUSH0 PUSH2 0x520 SWAP2 SWAP1 PUSH2 0x754 JUMP JUMPDEST JUMP JUMPDEST PUSH1 0x60 PUSH0 DUP1 SLOAD DUP1 PUSH1 0x20 MUL PUSH1 0x20 ADD PUSH1 0x40 MLOAD SWAP1 DUP2 ADD PUSH1 0x40 MSTORE DUP1 SWAP3 SWAP2 SWAP1 DUP2 DUP2 MSTORE PUSH1 0x20 ADD DUP3 DUP1 SLOAD DUP1 ISZERO PUSH2 0x56D JUMPI PUSH1 0x20 MUL DUP3 ADD SWAP2 SWAP1 PUSH0 MSTORE PUSH1 0x20 PUSH0 KECCAK256 SWAP1 JUMPDEST DUP2 SLOAD DUP2 MSTORE PUSH1 0x20 ADD SWAP1 PUSH1 0x1 ADD SWAP1 DUP1 DUP4 GT PUSH2 0x559 JUMPI JUMPDEST POP POP POP POP POP SWAP1 POP SWAP1 JUMP JUMPDEST PUSH1 0x2 DUP2 DUP2 SLOAD DUP2 LT PUSH2 0x586 JUMPI PUSH0 DUP1 REVERT JUMPDEST SWAP1 PUSH0 MSTORE PUSH1 0x20 PUSH0 KECCAK256 ADD PUSH0 SWAP2 POP SWAP1 POP SLOAD DUP2 JUMP JUMPDEST PUSH1 0x1 DUP2 DUP2 SLOAD DUP2 LT PUSH2 0x5A6 JUMPI PUSH0 DUP1 REVERT JUMPDEST SWAP1 PUSH0 MSTORE PUSH1 0x20 PUSH0 KECCAK256 ADD PUSH0 SWAP2 POP SLOAD SWAP1 PUSH2 0x100 EXP SWAP1 DIV PUSH20 0xFFFFFFFFFFFFFFFFFFFFFFFFFFFFFFFFFFFFFFFF AND DUP2 JUMP JUMPDEST PUSH1 0x1 CALLER SWAP1 DUP1 PUSH1 0x1 DUP2 SLOAD ADD DUP1 DUP3 SSTORE DUP1 SWAP2 POP POP PUSH1 0x1 SWAP1 SUB SWAP1 PUSH0 MSTORE PUSH1 0x20 PUSH0 KECCAK256 ADD PUSH0 SWAP1 SWAP2 SWAP1 SWAP2 SWAP1 SWAP2 PUSH2 0x100 EXP DUP2 SLOAD DUP2 PUSH20 0xFFFFFFFFFFFFFFFFFFFFFFFFFFFFFFFFFFFFFFFF MUL NOT AND SWAP1 DUP4 PUSH20 0xFFFFFFFFFFFFFFFFFFFFFFFFFFFFFFFFFFFFFFFF AND MUL OR SWAP1 SSTORE POP PUSH1 0x2 DUP2 SWAP1 DUP1 PUSH1 0x1 DUP2 SLOAD ADD DUP1 DUP3 SSTORE DUP1 SWAP2 POP POP PUSH1 0x1 SWAP1 SUB SWAP1 PUSH0 MSTORE PUSH1 0x20 PUSH0 KECCAK256 ADD PUSH0 SWAP1 SWAP2 SWAP1 SWAP2 SWAP1 SWAP2 POP SSTORE POP JUMP JUMPDEST PUSH1 0x2 PUSH0 PUSH2 0x668 SWAP2 SWAP1 PUSH2 0x772 JUMP JUMPDEST JUMP JUMPDEST PUSH1 0x40 MLOAD DUP1 PUSH2 0x140 ADD PUSH1 0x40 MSTORE DUP1 PUSH1 0x1 PUSH1 0xFF AND DUP2 MSTORE PUSH1 0x20 ADD PUSH1 0x2 PUSH1 0xFF AND DUP2 MSTORE PUSH1 0x20 ADD PUSH1 0x3 PUSH1 0xFF AND DUP2 MSTORE PUSH1 0x20 ADD PUSH1 0x4 PUSH1 0xFF AND DUP2 MSTORE PUSH1 0x20 ADD PUSH1 0x5 PUSH1 0xFF AND DUP2 MSTORE PUSH1 0x20 ADD PUSH1 0x6 PUSH1 0xFF AND DUP2 MSTORE PUSH1 0x20 ADD PUSH1 0x7 PUSH1 0xFF AND DUP2 MSTORE PUSH1 0x20 ADD PUSH1 0x8 PUSH1 0xFF AND DUP2 MSTORE PUSH1 0x20 ADD PUSH1 0x9 PUSH1 0xFF AND DUP2 MSTORE PUSH1 0x20 ADD PUSH1 0xA PUSH1 0xFF AND DUP2 MSTORE POP PUSH0 SWAP1 PUSH1 0xA PUSH2 0x6E7 SWAP3 SWAP2 SWAP1 PUSH2 0x790 JUMP JUMPDEST POP JUMP JUMPDEST PUSH0 DUP2 DUP2 SLOAD DUP2 LT PUSH2 0x6F8 JUMPI PUSH0 DUP1 REVERT JUMPDEST SWAP1 PUSH0 MSTORE PUSH1 0x20 PUSH0 KECCAK256 ADD PUSH0 SWAP2 POP SWAP1 POP SLOAD DUP2 JUMP JUMPDEST DUP3 DUP1 SLOAD DUP3 DUP3 SSTORE SWAP1 PUSH0 MSTORE PUSH1 0x20 PUSH0 KECCAK256 SWAP1 DUP2 ADD SWAP3 DUP3 ISZERO PUSH2 0x743 JUMPI SWAP2 PUSH1 0x20 MUL DUP3 ADD JUMPDEST DUP3 DUP2 GT ISZERO PUSH2 0x742 JUMPI DUP3 MLOAD DUP3 SSTORE SWAP2 PUSH1 0x20 ADD SWAP2 SWAP1 PUSH1 0x1 ADD SWAP1 PUSH2 0x727 JUMP JUMPDEST JUMPDEST POP SWAP1 POP PUSH2 0x750 SWAP2 SWAP1 PUSH2 0x7E0 JUMP JUMPDEST POP SWAP1 JUMP JUMPDEST POP DUP1 SLOAD PUSH0 DUP3 SSTORE SWAP1 PUSH0 MSTORE PUSH1 0x20 PUSH0 KECCAK256 SWAP1 DUP2 ADD SWAP1 PUSH2 0x76F SWAP2 SWAP1 PUSH2 0x7E0 JUMP JUMPDEST POP JUMP JUMPDEST POP DUP1 SLOAD PUSH0 DUP3 SSTORE SWAP1 PUSH0 MSTORE PUSH1 0x20 PUSH0 KECCAK256 SWAP1 DUP2 ADD SWAP1 PUSH2 0x78D SWAP2 SWAP1 PUSH2 0x7E0 JUMP JUMPDEST POP JUMP JUMPDEST DUP3 DUP1 SLOAD DUP3 DUP3 SSTORE SWAP1 PUSH0 MSTORE PUSH1 0x20 PUSH0 KECCAK256 SWAP1 DUP2 ADD SWAP3 DUP3 ISZERO PUSH2 0x7CF JUMPI SWAP2 PUSH1 0x20 MUL DUP3 ADD JUMPDEST DUP3 DUP2 GT ISZERO PUSH2 0x7CE JUMPI DUP3 MLOAD DUP3 SWAP1 PUSH1 0xFF AND SWAP1 SSTORE SWAP2 PUSH1 0x20 ADD SWAP2 SWAP1 PUSH1 0x1 ADD SWAP1 PUSH2 0x7AE JUMP JUMPDEST JUMPDEST POP SWAP1 POP PUSH2 0x7DC SWAP2 SWAP1 PUSH2 0x7E0 JUMP JUMPDEST POP SWAP1 JUMP JUMPDEST JUMPDEST DUP1 DUP3 GT ISZERO PUSH2 0x7F7 JUMPI PUSH0 DUP2 PUSH0 SWAP1 SSTORE POP PUSH1 0x1 ADD PUSH2 0x7E1 JUMP JUMPDEST POP SWAP1 JUMP JUMPDEST PUSH0 DUP2 MLOAD SWAP1 POP SWAP2 SWAP1 POP JUMP JUMPDEST PUSH0 DUP3 DUP3 MSTORE PUSH1 0x20 DUP3 ADD SWAP1 POP SWAP3 SWAP2 POP POP JUMP JUMPDEST PUSH0 DUP2 SWAP1 POP PUSH1 0x20 DUP3 ADD SWAP1 POP SWAP2 SWAP1 POP JUMP JUMPDEST PUSH0 DUP2 SWAP1 POP SWAP2 SWAP1 POP JUMP JUMPDEST PUSH2 0x836 DUP2 PUSH2 0x824 JUMP JUMPDEST DUP3 MSTORE POP POP JUMP JUMPDEST PUSH0 PUSH2 0x847 DUP4 DUP4 PUSH2 0x82D JUMP JUMPDEST PUSH1 0x20 DUP4 ADD SWAP1 POP SWAP3 SWAP2 POP POP JUMP JUMPDEST PUSH0 PUSH1 0x20 DUP3 ADD SWAP1 POP SWAP2 SWAP1 POP JUMP JUMPDEST PUSH0 PUSH2 0x869 DUP3 PUSH2 0x7FB JUMP JUMPDEST PUSH2 0x873 DUP2 DUP6 PUSH2 0x805 JUMP JUMPDEST SWAP4 POP PUSH2 0x87E DUP4 PUSH2 0x815 JUMP JUMPDEST DUP1 PUSH0 JUMPDEST DUP4 DUP2 LT ISZERO PUSH2 0x8AE JUMPI DUP2 MLOAD PUSH2 0x895 DUP9 DUP3 PUSH2 0x83C JUMP JUMPDEST SWAP8 POP PUSH2 0x8A0 DUP4 PUSH2 0x853 JUMP JUMPDEST SWAP3 POP POP PUSH1 0x1 DUP2 ADD SWAP1 POP PUSH2 0x881 JUMP JUMPDEST POP DUP6 SWAP4 POP POP POP POP SWAP3 SWAP2 POP POP JUMP JUMPDEST PUSH0 DUP2 MLOAD SWAP1 POP SWAP2 SWAP1 POP JUMP JUMPDEST PUSH0 DUP3 DUP3 MSTORE PUSH1 0x20 DUP3 ADD SWAP1 POP SWAP3 SWAP2 POP POP JUMP JUMPDEST PUSH0 DUP2 SWAP1 POP PUSH1 0x20 DUP3 ADD SWAP1 POP SWAP2 SWAP1 POP JUMP JUMPDEST PUSH0 PUSH20 0xFFFFFFFFFFFFFFFFFFFFFFFFFFFFFFFFFFFFFFFF DUP3 AND SWAP1 POP SWAP2 SWAP1 POP JUMP JUMPDEST PUSH0 PUSH2 0x90D DUP3 PUSH2 0x8E4 JUMP JUMPDEST SWAP1 POP SWAP2 SWAP1 POP JUMP JUMPDEST PUSH2 0x91D DUP2 PUSH2 0x903 JUMP JUMPDEST DUP3 MSTORE POP POP JUMP JUMPDEST PUSH0 PUSH2 0x92E DUP4 DUP4 PUSH2 0x914 JUMP JUMPDEST PUSH1 0x20 DUP4 ADD SWAP1 POP SWAP3 SWAP2 POP POP JUMP JUMPDEST PUSH0 PUSH1 0x20 DUP3 ADD SWAP1 POP SWAP2 SWAP1 POP JUMP JUMPDEST PUSH0 PUSH2 0x950 DUP3 PUSH2 0x8BB JUMP JUMPDEST PUSH2 0x95A DUP2 DUP6 PUSH2 0x8C5 JUMP JUMPDEST SWAP4 POP PUSH2 0x965 DUP4 PUSH2 0x8D5 JUMP JUMPDEST DUP1 PUSH0 JUMPDEST DUP4 DUP2 LT ISZERO PUSH2 0x995 JUMPI DUP2 MLOAD PUSH2 0x97C DUP9 DUP3 PUSH2 0x923 JUMP JUMPDEST SWAP8 POP PUSH2 0x987 DUP4 PUSH2 0x93A JUMP JUMPDEST SWAP3 POP POP PUSH1 0x1 DUP2 ADD SWAP1 POP PUSH2 0x968 JUMP JUMPDEST POP DUP6 SWAP4 POP POP POP POP SWAP3 SWAP2 POP POP JUMP JUMPDEST PUSH0 PUSH1 0x40 DUP3 ADD SWAP1 POP DUP2 DUP2 SUB PUSH0 DUP4 ADD MSTORE PUSH2 0x9BA DUP2 DUP6 PUSH2 0x85F JUMP JUMPDEST SWAP1 POP DUP2 DUP2 SUB PUSH1 0x20 DUP4 ADD MSTORE PUSH2 0x9CE DUP2 DUP5 PUSH2 0x946 JUMP JUMPDEST SWAP1 POP SWAP4 SWAP3 POP POP POP JUMP JUMPDEST PUSH0 DUP1 REVERT JUMPDEST PUSH0 DUP1 REVERT JUMPDEST PUSH0 DUP1 REVERT JUMPDEST PUSH0 DUP1 REVERT JUMPDEST PUSH0 DUP1 REVERT JUMPDEST PUSH0 DUP1 DUP4 PUSH1 0x1F DUP5 ADD SLT PUSH2 0xA00 JUMPI PUSH2 0x9FF PUSH2 0x9DF JUMP JUMPDEST JUMPDEST DUP3 CALLDATALOAD SWAP1 POP PUSH8 0xFFFFFFFFFFFFFFFF DUP2 GT ISZERO PUSH2 0xA1D JUMPI PUSH2 0xA1C PUSH2 0x9E3 JUMP JUMPDEST JUMPDEST PUSH1 0x20 DUP4 ADD SWAP2 POP DUP4 PUSH1 0x20 DUP3 MUL DUP4 ADD GT ISZERO PUSH2 0xA39 JUMPI PUSH2 0xA38 PUSH2 0x9E7 JUMP JUMPDEST JUMPDEST SWAP3 POP SWAP3 SWAP1 POP JUMP JUMPDEST PUSH0 DUP1 PUSH1 0x20 DUP4 DUP6 SUB SLT ISZERO PUSH2 0xA56 JUMPI PUSH2 0xA55 PUSH2 0x9D7 JUMP JUMPDEST JUMPDEST PUSH0 DUP4 ADD CALLDATALOAD PUSH8 0xFFFFFFFFFFFFFFFF DUP2 GT ISZERO PUSH2 0xA73 JUMPI PUSH2 0xA72 PUSH2 0x9DB JUMP JUMPDEST JUMPDEST PUSH2 0xA7F DUP6 DUP3 DUP7 ADD PUSH2 0x9EB JUMP JUMPDEST SWAP3 POP SWAP3 POP POP SWAP3 POP SWAP3 SWAP1 POP JUMP JUMPDEST PUSH0 PUSH1 0x20 DUP3 ADD SWAP1 POP DUP2 DUP2 SUB PUSH0 DUP4 ADD MSTORE PUSH2 0xAA3 DUP2 DUP5 PUSH2 0x85F JUMP JUMPDEST SWAP1 POP SWAP3 SWAP2 POP POP JUMP JUMPDEST PUSH2 0xAB4 DUP2 PUSH2 0x824 JUMP JUMPDEST DUP2 EQ PUSH2 0xABE JUMPI PUSH0 DUP1 REVERT JUMPDEST POP JUMP JUMPDEST PUSH0 DUP2 CALLDATALOAD SWAP1 POP PUSH2 0xACF DUP2 PUSH2 0xAAB JUMP JUMPDEST SWAP3 SWAP2 POP POP JUMP JUMPDEST PUSH0 PUSH1 0x20 DUP3 DUP5 SUB SLT ISZERO PUSH2 0xAEA JUMPI PUSH2 0xAE9 PUSH2 0x9D7 JUMP JUMPDEST JUMPDEST PUSH0 PUSH2 0xAF7 DUP5 DUP3 DUP6 ADD PUSH2 0xAC1 JUMP JUMPDEST SWAP2 POP POP SWAP3 SWAP2 POP POP JUMP JUMPDEST PUSH2 0xB09 DUP2 PUSH2 0x824 JUMP JUMPDEST DUP3 MSTORE POP POP JUMP JUMPDEST PUSH0 PUSH1 0x20 DUP3 ADD SWAP1 POP PUSH2 0xB22 PUSH0 DUP4 ADD DUP5 PUSH2 0xB00 JUMP JUMPDEST SWAP3 SWAP2 POP POP JUMP JUMPDEST PUSH2 0xB31 DUP2 PUSH2 0x903 JUMP JUMPDEST DUP3 MSTORE POP POP JUMP JUMPDEST PUSH0 PUSH1 0x20 DUP3 ADD SWAP1 POP PUSH2 0xB4A PUSH0 DUP4 ADD DUP5 PUSH2 0xB28 JUMP JUMPDEST SWAP3 SWAP2 POP POP JUMP JUMPDEST PUSH32 0x4E487B7100000000000000000000000000000000000000000000000000000000 PUSH0 MSTORE PUSH1 0x32 PUSH1 0x4 MSTORE PUSH1 0x24 PUSH0 REVERT JUMPDEST PUSH32 0x4E487B7100000000000000000000000000000000000000000000000000000000 PUSH0 MSTORE PUSH1 0x11 PUSH1 0x4 MSTORE PUSH1 0x24 PUSH0 REVERT JUMPDEST PUSH0 PUSH2 0xBB4 DUP3 PUSH2 0x824 JUMP JUMPDEST SWAP2 POP PUSH32 0xFFFFFFFFFFFFFFFFFFFFFFFFFFFFFFFFFFFFFFFFFFFFFFFFFFFFFFFFFFFFFFFF DUP3 SUB PUSH2 0xBE6 JUMPI PUSH2 0xBE5 PUSH2 0xB7D JUMP JUMPDEST JUMPDEST PUSH1 0x1 DUP3 ADD SWAP1 POP SWAP2 SWAP1 POP JUMP JUMPDEST PUSH32 0x4E487B7100000000000000000000000000000000000000000000000000000000 PUSH0 MSTORE PUSH1 0x41 PUSH1 0x4 MSTORE PUSH1 0x24 PUSH0 REVERT JUMPDEST PUSH0 PUSH2 0xC28 DUP3 PUSH2 0x824 JUMP JUMPDEST SWAP2 POP PUSH2 0xC33 DUP4 PUSH2 0x824 JUMP JUMPDEST SWAP3 POP DUP3 DUP3 ADD SWAP1 POP DUP1 DUP3 GT ISZERO PUSH2 0xC4B JUMPI PUSH2 0xC4A PUSH2 0xB7D JUMP JUMPDEST JUMPDEST SWAP3 SWAP2 POP POP JUMP INVALID LOG2 PUSH5 0x6970667358 0x22 SLT KECCAK256 SWAP7 0x2D PUSH4 0x710440E TIMESTAMP 0xD4 SWAP3 DUP13 INVALID 0x2A SWAP12 CODESIZE 0xD2 0xE7 PUSH29 0x3C950C4C945F639329FB84C5C42264736F6C6343000819003300000000 "
				},
				"gasEstimates": {
					"creation": {
						"codeDepositCost": "641400",
						"executionCost": "infinite",
						"totalCost": "infinite"
					},
					"external": {
						"afterY2K()": "infinite",
						"appendToNumbers(uint256[])": "infinite",
						"getNumbers()": "infinite",
						"numbers(uint256)": "infinite",
						"resetNumbers()": "infinite",
						"resetSenders()": "infinite",
						"resetTimestamps()": "infinite",
						"saveTimestamp(uint256)": "95418",
						"senders(uint256)": "4944",
						"timestamps(uint256)": "infinite"
					}
				},
				"methodIdentifiers": {
					"afterY2K()": "20aaf79a",
					"appendToNumbers(uint256[])": "4f9377db",
					"getNumbers()": "89f915f6",
					"numbers(uint256)": "d39fa233",
					"resetNumbers()": "b1cebac5",
					"resetSenders()": "7f66b1b8",
					"resetTimestamps()": "ade82bfd",
					"saveTimestamp(uint256)": "a00b7acd",
					"senders(uint256)": "9977c78a",
					"timestamps(uint256)": "8bc33af3"
				}
			},
			"storageLayout": {
				"storage": [
					{
						"astId": 15,
						"contract": "contracts/Arrays.sol:ArraysExercise",
						"label": "numbers",
						"offset": 0,
						"slot": "0",
						"type": "t_array(t_uint256)dyn_storage"
					},
					{
						"astId": 18,
						"contract": "contracts/Arrays.sol:ArraysExercise",
						"label": "senders",
						"offset": 0,
						"slot": "1",
						"type": "t_array(t_address)dyn_storage"
					},
					{
						"astId": 21,
						"contract": "contracts/Arrays.sol:ArraysExercise",
						"label": "timestamps",
						"offset": 0,
						"slot": "2",
						"type": "t_array(t_uint256)dyn_storage"
					}
				],
				"types": {
					"t_address": {
						"encoding": "inplace",
						"label": "address",
						"numberOfBytes": "20"
					},
					"t_array(t_address)dyn_storage": {
						"base": "t_address",
						"encoding": "dynamic_array",
						"label": "address[]",
						"numberOfBytes": "32"
					},
					"t_array(t_uint256)dyn_storage": {
						"base": "t_uint256",
						"encoding": "dynamic_array",
						"label": "uint256[]",
						"numberOfBytes": "32"
					},
					"t_uint256": {
						"encoding": "inplace",
						"label": "uint256",
						"numberOfBytes": "32"
					}
				}
			},
			"userdoc": {
				"kind": "user",
				"methods": {},
				"version": 1
			}
		}
	}
}